:10000000C82200209D320000DB150000FF15000013
:100010004F180000971A0000BB1A000000000000F3
:10002000000000000000000000000000C31E0000EF
:10003000C71E0000000000002B2E0000D72E00007D
:10004000353200005B3200002524000067320000DA
:100050009B320000AD320000AF320000B132000030
:10006000B3320000B5320000B7320000B9320000F0
:10007000BB320000BD320000BF320000C1320000C0
:10008000C3320000C5320000C7320000C932000090
:10009000CB320000CD320000CF320000D132000060
:1000A000D3320000D5320000D7320000D932000030
:1000B000DB320000DD320000000000000000000024
:1000C000DF320000E1320000E3320000E5320000E0
:1000D000E7320000E9320000EB32000000000000CF
:1000E0000000000000000000000000000000000010
:1000F0000000000000000000000000000000000000
:1001000000000000000000000000000000000000EF
:1001100000000000000000000000000000000000DF
:1001200000000000000000000000000000000000CF
:1001300000000000000000000000000000000000BF
:1001400000000000000000000000000000000000AF
:10015000000000000000000000000000000000009F
:10016000000000000000000000000000000000008F
:10017000000000000000000000000000000000007F
:10018000000000000000000000000000000000006F
:10019000000000000000000000000000000000005F
:1001A000000000000000000000000000000000004F
:1001B000000000000000000000000000000000003F
:1001C000000000000000000000000000000000002F
:1001D000000000000000000000000000000000001F
:1001E000000000000000000000000000000000000F
:1001F00000000000000000000000000000000000FF
:100200002DE9F14FB2B09A46914600230691CDE90F
:1002100000333C9A0F930DF14A0114914A7011E09A
:10022000329E4F462C4617F8011B0698B04700280F
:10023000069000F026810F98401C641E0F90F2D1AA
:100240003296A94499F80000252808D100210022FF
:1002500009910A920B910C920D910E920FE06A4651
:100260004FF0FF31484601F01BF8050002D10F980E
:1002700000F00CBED4D50125E3E741F0010119F8E7
:10028000010F2028F9D023280CD02B2804D02D28AA
:1002900005D0302809D00BE041F00201EFE741F032
:1002A0000401ECE741F00801E9E741F01001E6E75D
:1002B0002A280FD1DAF8002052F8040BCAF80020DF
:1002C0000028119003D54042119041F0040109F13A
:1002D000010914E01192DFF8503B0AE011989842AE
:1002E00005DA00EB800402EB4402303A119209F186
:1002F000010999F80020A2F130000A28EED399F8FC
:1003000000002E2803D04FF0FF32109229E019F898
:10031000010F2A2809D1DAF8000050F8042BCAF896
:100320000000109209F101091BE02D280CBF09F112
:100330000109002000221092DFF8EC2A0BE040B9FE
:10034000109B934205DA03EB830504EB4504303C34
:10035000109409F1010999F80040A4F130030A2B27
:10036000EDD3ADF848100FF6C42099F8001000F056
:10037000A1FF08B119F8010B8DF84A009DF84A0059
:10038000682805D199F8000068280CD1622106E0A0
:100390006C2804BF99F800006C2804D171218DF8F5
:1003A0004A1009F101091FA8089019F801BBBBF117
:1003B00025012DD01C3900F06281091F022940F26D
:1003C0005E810E392AD0491F00F06584093900F09A
:1003D0005681891E00F0FB84491E00F0A784491E47
:1003E000022940F24C81091F00F0A084491F00F04F
:1003F000BB80491E00F04F84491E65D0C91E21D024
:10040000891E00F04884C91E00F0458400F0FEBC3F
:1004100025238DF87C30012109912AE06C208DF88C
:100420004A00DAF8000050F8042BCAF80000002A4D
:1004300043D11499487800283DD04FF0FF340FF68F
:10044000F41012E09DF84A006C28EAD0DAF80000B7
:1004500050F8044BCAF800000794D4B914994878AE
:1004600098B14FF0FF340FF6E81000F02FFF201A7C
:1004700007D132981FAA04A900F00BFD00287FF5D0
:10048000E1AE4FF0FF3000F001BD0FF6E010079035
:10049000EFE7109D002D04D5204600F037FF0446FD
:1004A00007E02A46204600F03BFF002814BF041B4B
:1004B0002C460A94DDE70FF6B812329804A900F032
:1004C0006EFD0028D5D5DCE7DAF8001051F8040BF2
:1004D000CAF8001020F00004002121F0FF351FAB06
:1004E000CDE904450793DDE9042308993C2413B9B9
:1004F0000AB91098A0B102F00F05641E30353A2DEC
:1005000008DA12090D5542EA03721B0908BF002AD6
:1005100002D105E02735F4E707980D19A842EAD380
:1005200008190790C4F13C0210980A92824209DA35
:10053000BDF84810821A4FF6EF7001400C92ADF8EA
:10054000481096E7002894D59DF8480000F0140064
:1005500010288ED1119B09990C985B1A1B1A9A1AB4
:10056000002A86DD0C9284E71499487820B14FF078
:10057000FF340FF6001078E79DF84A00622862D039
:10058000682819D06A2840D06C2806D071284DD030
:1005900074282DD07A281ED064E0DAF8001051F8C3
:1005A000040BCAF8001020B94FF0FF340FF640409A
:1005B0005BE70F9901605CE7DAF8001051F8040B73
:1005C000CAF8001020B94FF0FF340FF624404CE772
:1005D0000F9901804DE7DAF8001051F8040BCAF8C2
:1005E00000100028E5D14FF0FF340FF604403CE73F
:1005F000DAF8001051F8040BCAF800100028D8D11E
:100600004FF0FF340FF6E8302FE7DAF8001051F81A
:10061000040BCAF8001020B94FF0FF340FF6D030A9
:1006200023E70F9AD317C0E9002322E7DAF8001076
:1006300051F8040BCAF800100028F2D14FF0FF3433
:100640000FF6AC3011E7DAF8001051F8040BCAF8D5
:10065000001020B94FF0FF340FF6943005E70F99E2
:10066000017006E7DAF8001051F8040BCAF8001020
:1006700000289ED14FF0FF340FF67430F5E6DAF81B
:100680000020D21D22F00702CAF80020D2E90001A2
:100690000832CAF80020CDE90401C80F02D0099839
:1006A0002D210AE0BDF84800810702D509982B21C9
:1006B00003E0C00705D5099820211FAA1154401C4A
:1006C00009901FA80999DDE9044543184BF0200063
:1006D0006128079315AE0BD01098002802D506208C
:1006E000109005E001BF4BF0200067280121109118
:1006F000DDE9040148004015401C0A4611D10903F8
:100700000FD0ABF1610703201A2F0A9002D20FF627
:10071000F82101E00FF6F4210322184600F02CFE28
:10072000A7E650B9120308D1ABF1610703201A2FD5
:100730000A9018D30FF6DC21EEE7DDE9040102AAE6
:1007400000F026FECDE904014BF02000612811D114
:10075000079830210170821C0792BBF1610F0CBF1A
:100760007821582102E00FF6A821D5E741700998B9
:10077000801C0990DDE9040120F0000231F0004303
:1007800008BF002A02D10025002446E14BF02008D2
:10079000B8F1610F40F095801098002847BF2121E3
:1007A0000391401C0390039F7F1C20462946002292
:1007B0000023DDE9044500F023FE38BF85F0004545
:1007C00002998DF85420091F002F02910DF1550058
:1007D00034DD0646204629460022002300F02AFE8A
:1007E0002BD21C2200F040FE04460D4600F0DAFE3B
:1007F000FF1F002F804609DD00F0F0FE02460B4689
:100800002046294600F0B2FF04460D46F01D0721A0
:10081000B8F1000F0CDD491E5EBF08F00F0200F8B2
:10082000012D4FEA2818F3D502E0002200F8012D2F
:10083000491EFAD5C61D002FCCDC30460DF15501FE
:10084000401A03990DF1550605468842C8BF0D466A
:10085000002D2FD4854206DA0DF15500415D08299F
:10086000A8BF0F2000DA0020294615AA0A4400E09C
:100870006D1E12F80139491E8342F9D00F2804D1A8
:100880000DF15500425C521C4254002904D50298D7
:10089000001D15AE6D1C0290681E0BD431180A782D
:1008A0003032D3B23A2BA4BF5A443A3A401E01F830
:1008B0000129F4D51098002840F1AE80691E1091EE
:1008C000AAE00299DFF8E82847F29750414391FBEC
:1008D000F2F2029225F00045C2F10702002A04DD7F
:1008E0002046294600F041FC0BE052420020DFF890
:1008F000C41800F03AFC02460B462046294600F098
:10090000A7FF04460D46B8F1660F06BF029F0A37DF
:10091000062710983F18142FC8BF142730208DF8D1
:1009200054000020DFF89018CDE92E010DF1550696
:10093000002F33DD2046294601F0AEF801460A4675
:1009400006F1080304200A26B2FBF6F606EB860E33
:10095000A2EB4E02303203F8012C0A22B6FBF2F26F
:1009600002EB820EA6EB4E063036401E03F8026DF7
:10097000E9D1083F002F03F10806D9DD084601F050
:100980009DF802460B462046294600F0EFFEDDE9C1
:100990002E2301F0A1F804460D46CBE70DF15500DA
:1009A000301A0DF1550604E00299491E401E0291CD
:1009B000761C31783029F7D0B8F1660F02D1029950
:1009C000491C04E0B8F1650F0CBF01210021109D06
:1009D0004D19A842B8BF451E002D1DD4854204DA2A
:1009E000705D3428C8BF392000DC30202946721ED3
:1009F000531800E06D1E13F80149491E8442F9D0D6
:100A0000392802D1705C401C7054002904D502982A
:100A1000401C16466D1C0290029C00F045FC406A8A
:100A20000778DDF8408028B2002802DC01250FF2AB
:100A3000E8764BF02000662808BF641C16D06728B3
:100A400046D120B210F1040F48DB404546DA9DF84C
:100A50004800641C010703D428B24045D8BF804633
:100A600020B2B8EB000848BF4FF000080FFA84FB33
:100A700007980A99BBF1000F00F3B3804A1C0A9251
:100A800030234354B8F1000F03DC9DF84800010700
:100A900004D50A98411C0A9107990F5418EB0B0FC3
:100AA000B8BFC8F1000424B26042A0442AB20D903D
:100AB0009045B8BF4546079B0A982DB20B952A462C
:100AC0003146184400F058FCA8EB05000E90CCE02D
:100AD000BBF1610F17D14FF0700B19E028B2404500
:100AE00004DA9DF848100A0758BF8046B8F101089B
:100AF00048BF4FF00008BBF1670F14BF4FF0450B24
:100B00004FF0650B04E0BBF1410F08BF4FF0500BF5
:100B10000A98411C0A91B8F1000F079916F8012BA9
:100B20000A5403DC9DF8480001071AD50A98411CB5
:100B30000A91B8F1000F07990F5412DD6D1E28B20B
:100B40008045B8BF454607980A9B2AB231461844EB
:100B500000F012FC0A992DB269180A91A8EB050061
:100B60000D9007980A99084421B2002980F800B036
:100B700003D42B224270821C04E02D2242700C46CA
:100B8000821C644200212EAB20460AE004460A2063
:100B900094FBF0F000EB8005A4EB450403F8014B57
:100BA000491C00B20028F1DC012906DC4BF02000D2
:100BB000652804BF302002F8010B00292EAB08D1B4
:100BC000302002F8010B06E0491E585C303002F874
:100BD000010B0029F8DC07990A980844121A0B92B5
:100BE00043E0084429B222B2914219DA2AB23146CE
:100BF00000F0C2FB0A992DB269180A91ABEB05000F
:100C0000B8F1000F0D9003DC9DF84800020704D5F1
:100C1000079847540B99491C0B91CDF8388024E074
:100C2000314600F0A9FB0A982D1B5844B8F1000F7B
:100C30000A9003DC9DF848100A0703D5411C0A916D
:100C400007990F5428B28045B8BF454607980A9BBC
:100C50002AB206EB0B01184400F08EFB0A982DB265
:100C600028180A90A8EB05000D909DF8480000F0A8
:100C7000140010287FF4FDAB099A0A990D988A1880
:100C80000B9982180E988A18821811988242BFF622
:100C9000F0AB821A66E49DF84A00622808D0682802
:100CA0000ED06A2814D06C281FD0712810D01CE0F8
:100CB000DAF8001051F8040BCAF80010C0B21AE0BC
:100CC000DAF8001051F8040BCAF8001080B212E0F4
:100CD000DAF80020D21D22F00702CAF80020D2E97B
:100CE00000010832CAF8002006E0DAF8001051F8D6
:100CF000040BCAF800100021CDE904019DF848005A
:100D000001075AD5DDE90423002B08BF002A54D07F
:100D10004BF02000782850D109981FA930220A549E
:100D2000401C431C099301F800B046E09DF84A00BE
:100D3000622808D068280ED06A2814D06C281FD0EA
:100D4000712810D01CE0DAF8001051F8040BCAF832
:100D5000001040B21AE0DAF8001051F8040BCAF89B
:100D6000001000B212E0DAF80020D21D22F00702D3
:100D7000CAF80020D2E900010832CAF8002006E0D3
:100D8000DAF8001051F8040BCAF80010C117CDE9C9
:100D90000401002902D509982D210AE0BDF8480078
:100DA000810702D509982B2103E0C00705D50998D2
:100DB00020211FAA1154401C09901FA80999014421
:100DC000079104A8594600F04AF9FFF752BB9DF875
:100DD0004A006C280BD001210991DAF8000050F884
:100DE000041BCAF800008DF87C10FFF742BBDAF84C
:100DF000000050F8041BCAF8000002914FF0FF32C7
:100E000010920021039102AAFFF757BB252101226E
:100E1000BBF1000F8DF87C1009923FF42AAB8DF8DE
:100E20007DB00221FFF7F8BACBCCCC0C686A6C74A9
:100E30007A4C00007072696E74665F733A2062616A
:100E40006420256C7320617267756D656E74000097
:100E50007072696E74665F733A20626164202573F4
:100E600020617267756D656E7400000000000000FF
:100E7000000000007072696E74665F733A20256E20
:100E800020646973616C6C6F7765640033B0BDE892
:100E9000F08F2DE9FC410F46064690467A6B786943
:100EA000396ABC6A121AB869521A796A121AF86950
:100EB000521A121A97F83800141B41070FD4202039
:100EC000002C8DF800000ADD254601236A463946CC
:100ED000304600F075F900285DD16D1EF5D17B69B3
:100EE00042463946304600F06BF9002853D1302095
:100EF0008DF800003D6A002D09DD01236A46394660
:100F0000304600F05DF9002845D16D1EF5D1BB6972
:100F1000FA683946304600F053F900283BD13020BA
:100F20008DF800007D6A002D08DD01236A463946F0
:100F3000304600F045F970BB6D1EF6D1F868B9690E
:100F4000FB6942183946304600F03AF918BB3020A8
:100F50008DF80000BD6A002D08DD01236A46394680
:100F6000304600F02DF9B0B96D1EF6D197F8380073
:100F700041070DD52020002C8DF8000008DD01234D
:100F80006A463946304600F01BF920B9641EF6D196
:100F90000020BDE8F6814FF0FF30BDE8F6812DE975
:100FA000F8470D46A3B02F6B82469046002F48BFEE
:100FB0006FF0004700F065FE696B401801AA002140
:100FC000C2E90011812828BF4FF0FF3044D2894682
:100FD0001EE0A74230DB6869201881280BD300216E
:100FE000696303AA29465046FFF753FF5FEA0009E9
:100FF00022D40020686103AB6E69224669469819C5
:1010000000F0BAF9A6196E6158F8040BA0B13F1BA5
:10101000002F11DDD8F8001001AA684600F042F94F
:101020000446002C05D4D8F800000028D1D1641E55
:10103000CFD54FF0FF390EE0B9F1000F504604D183
:1010400003AA2946FFF725FF8146B9F1000F02D117
:10105000002068616863484624B0BDE8F0872DE948
:10106000FC4304466F29256908BF082605D041F0D6
:101070002000782814BF0A261026D4E900233C2734
:1010800090469946642918BF692905D1002B03D5DC
:10109000D8F1000869EB4909B9F1000F08BFB8F1B0
:1010A000000F0CD1206B50B9082E3AD194F83800BB
:1010B000010736D530203B2785F83B0031E08DF81D
:1010C0000010404649463246F31700F0DFFD30324B
:1010D000D0B27F1E3A2801970EDAEA5540464946BB
:1010E0003246F31700F0D2FD80465FEA010908BFDF
:1010F000B8F1000F05D108E09DF800001218513A30
:10110000EBE7E068E9198842DBD3082E09D194F8AF
:101110003800010705D5E85D302802D07F1E302059
:10112000E855C7F13C02A261E919E160206B8242F7
:1011300008DA821A22624FF6EF70218F0140218770
:10114000BDE8F38300280ED594F8380000F01400B1
:10115000102808D1636B6169206A5B1A1B1A9A1AFE
:10116000002AC8BF2262BDE8F3832DE9D0430646BA
:101170000F4614464FF00008DFF8409012E0E007F9
:1011800007D542464B463046394600F0A5FC064698
:101190000F464046494642464B4600F09DFC6410CF
:1011A00080468946002CEAD130463946BDE8D083D6
:1011B000A08601000000F03F84D797410000244042
:1011C000F8B505460E4617461C4600205CB117F8D8
:1011D000011BB068A847B06030B1F06A401CF062F3
:1011E0000020641EF3D1F2BD4FF0FF30F2BD0000CD
:1011F0007072696E74663A2062616420256E2061A7
:101200007267756D656E74006E616E004E414E00C2
:10121000696E6600494E46003000B1F5807F02D30A
:101220004FF0FF3070470170012070470078401E7A
:101230008041C043C00F70471C48704770B453686A
:10124000D41801E05B1C491E042B08DA00291FBFDB
:10125000057804F8015B10F8016B002EF2D15360A1
:1012600070BC704738B514461D4661B1FFF7E6FF04
:1012700061686A6B204690476FF00102811A02D0C4
:10128000491E01D001E003E005E00021616032BDAC
:101290006FF0010032BD4FF0FF3032BDDA6B104706
:1012A000024BDFE7014BF9E7014870477C00002063
:1012B00044000020C9B202788A421AB11CBF10F85B
:1012C000012FF9E718BF002070472E0080B500B944
:1012D00006A005490B681BB122220021984701E0B6
:1012E00000F0ECFD222002BDC4020020636F6E738B
:1012F000747261696E742068616E646C65723A2004
:10130000626164206D6573736167650000F10103BC
:1013100010F8011B11B110F8011BFBE7C01A704750
:10132000C9B2830706D0521E22D310F8013B99425E
:10133000F7D11FE0083A13D302F1040241EA012178
:1013400041EA014150F8043B121F21BF4B40A3F179
:10135000013C2CEA030C1CF0803FF3D0C9B2001F03
:10136000083210F8013B521E28BF91EA030FF8D84B
:1013700018BF0120401E70474AB1000011F8013B20
:10138000521E00F8013B1CBF11F8013BF8E7704703
:1013900010B5144600F002F8226010BDC1F30A53E4
:1013A00043B14A0012F5001F28D2A3F2FE32A1EB8E
:1013B0000251704750EA410C20D001F0004C31EA54
:1013C0000C01B1FA81F204BFB0FA80F3D2180B3AE3
:1013D000B2F120032CBF00FA03F1914041EA0C0165
:1013E0003EBFC2F1200C20FA0CF319439040524248
:1013F00040F2FD33D21A01EB0351704700227047CF
:1014000041EA030C50EA4C0C52EA0C0C4FF4001C5D
:1014100009D307D01CEB410F9CBF1CEB430F8B4241
:1014200008BF824270471CEB430FFBD8994208BFAC
:101430009042704741EA030C50EA4C0C52EA0C0C03
:101440004FF4001C09D307D01CEB410F9CBF1CEBD1
:10145000430F994208BF904270471CEB410FFBD8E5
:101460008B4208BF82427047124254D440F2FF7C44
:101470001CEA11530FD0634531D09B1863453CBF24
:1014800001EB0251704701F0004141EA0C5100208C
:10149000AFF30080704750EA410320D001F0004CC8
:1014A00091EA0C011CD0B1FA81F30B3B9A420DD9A1
:1014B000D21A994051EA0C01C3F1200C20FA0CFC1D
:1014C00061449840531C40F2FF7CD7E7914041EAC9
:1014D0000C01C2F1200C20FA0CF319439040704724
:1014E000B0FA80F31533202BE0D3202AEED3203A34
:1014F000203B9A4209D9D21A00FA03F141EA0C01C1
:101500000020531C40F2FF7CB8E700FA02F141EAE8
:101510000C0100207047524240F2FF7C1CEA11533C
:101520000DD06345DBD0B2EB030C3CBFA1EB025105
:1015300070470CF1010221EA035141F4801150EA95
:10154000410CCCD001F0004C352A27DC30B481EAC4
:101550000C01B2F1200309DAC2F12003044601FABA
:1015600003F5D0402843D1409C400CE0C3F1200259
:10157000450020FA03F418BF44F0010421FA03F0F7
:1015800091400C43002174F1004550F1000051EBF3
:101590000C01244230BC7FF47BAF704761460020D1
:1015A00076E74300C1F30A5340F21E42D31A0CDD22
:1015B000CA0283F3070342EA505242F00042DA4083
:1015C00002EBE17282EAE17070476FEAE17203F2C6
:1015D000E13008B182F000407047FEE710F00041B2
:1015E00060B148BF4042B0FA80F29040D21CC2F5D0
:1015F000846241EA025202EBD02140057047FEE7C7
:10160000841A71EB030604D26E40001BB14112191B
:1016100073414FF4001C1CEB410F34BF7CEB4306BD
:1016200083E00C0DA4EB1356362E00F37C80012EC4
:1016300045EAC32341DC43EA525312BFD20292026D
:101640005B08240545EAC12141EA5051D2EBC02094
:10165000994125D407D1B0FA80F610FA06F162D08C
:101660000020203608E0B1FA81F6B140C6F1200230
:1016700020FA02F21143B0404FEAF474B4EB46543E
:1016800034F001064FEA74040AD8D6F50016760D38
:1016900004F00044F04061FA06F25040F140484046
:1016A000C00A40EA415021F0004128BF5FEA5005DE
:1016B00050F1000044EBD12135E0DB0A45EAC121BD
:1016C000C90AB6F120050EDD42EA0242120CC5F14C
:1016D000200603FA06F6EB4042EA06056D42984101
:1016E00061F100010DE062FA06F5F240554063FA3F
:1016F00006FC82EA0C02F3405A406D42904161EBD5
:10170000030111F4801F05D1641E620502D06D0033
:101710004041494121F48011430875F1004350F1E3
:10172000000041EB045170BC70471CEB410F15D217
:1017300023F0004352EA43060BD04FEA4C0CBCEBBB
:10174000410F04D80C0D661E342EB7DDEBE7801A6E
:10175000994150EA410608BF0021E4E708BF1CEBAD
:10176000430F28BF6FF00001DDE7000070B491EA7D
:10177000030F4FF000457FF543AF6B40841A71EBC8
:10178000030603D2001BB141121973414FF4001C30
:101790001CEB410F34BF7CEB430442E00C0DA4EB87
:1017A0001356352E4FDC45EAC323DB0A45EAC12137
:1017B000C912B6F120050DDD63FA05F6EB4086EAA5
:1017C0000305124218BF45F00105C01851F1000190
:1017D0000CD213E062FA06F5F2405540F3415A404C
:1017E000B340F3405A408018594107D349085FEA93
:1017F00030005FEA350528BF45F0010501F580118D
:10180000420875F1004250F1000041EB04514E00D6
:1018100016F5001F70BC38BF70470020090D090580
:1018200070471CEB410F10D252EA43060BD0BCEBC1
:10183000410F05D80C0DAB43661E342EB6DD02E019
:10184000AB438018594170BC704770BC7047FEE7CD
:10185000F0B540F2FF7581EA030C0CF0004C15EA7C
:1018600011541DBF15EA1357AC42AF42E5E0BC412D
:10187000C1F31301C3F31303801A994143F4801396
:1018800004D2641E0018494180185941C90241EA36
:101890005051B1FBF3F603FB1611A2FB0675D7EB13
:1018A000C020A94102D2761E80185941C90241EADE
:1018B0005051B1FBF3FE03FB1E11A2FB0E75D7EBDB
:1018C000C020A94103D2AEF1010E8018594189020E
:1018D00041EA9051760546EA8E2EB1FBF3F603FB02
:1018E0001611A2FB0675D7EB8020A94102D2761E05
:1018F00080185941C90241EA50514EEA060EB1FB27
:10190000F3F603FB1611A2FB0675D7EBC020A94125
:1019100002D2761E80185941C90241EA5051B1FBEA
:10192000F3F703FB1711A2FB0735D3EBC020A94146
:1019300067F100070CBF004247F0010766F3D527A7
:101940004FEA1E31B80814F5806412DDBD0775F149
:10195000004250EB0E5051EB045111F5801F5CBF5B
:1019600041EA0C01F0BD4CF07F6141F0E041002004
:10197000F0BDBD076D0840EA0E5041F48011D4F16E
:101980000104B4F120060ADAC4F120060200E040A6
:1019900001FA06F3E1401843B24015430EE0342C3F
:1019A00013DCC6F1200445EA40056D0820FA06F272
:1019B000154321FA06F0A1400D43002175F10042C4
:1019C00050F1000051EB0C01F0BD00205FEA0C016A
:1019D000F0BDCFB992185B41B3FA83F704BFB2FAF6
:1019E00082F6BF190B3FB7F120062FBF02FA06F3AC
:1019F000BB40C7F1200622FA06F638BF3343BA408F
:101A00001CB1E419641E33E77F4231F00041B1FAA2
:101A100081F404BFB0FA80F6A4190B3CB4F120069F
:101A20002FBF00FA06F1A140C4F1200620FA06F605
:101A300038BF3143A0403C1B1AE7AC421ABF05EA4D
:101A40001357AF4212E050EA41061CBF52EA430668
:101A5000BFE750EA4107304661461CBF41EA0551E5
:101A6000F0BD52EA430C08BFC143F0BD00204FF463
:101A7000001616EB410F98BF16EB430F08BF16EB8D
:101A8000410F24BFC14305E016EB430F0CBF614675
:101A90004CEA0551F0BDFEE7400D40F21E4C40EA15
:101AA000C120BCEB115C40F0004003D48CF3070173
:101AB000C84070476FEAE1707047FEE750B1B0FA76
:101AC00080F18840C91CC1F58461090501EBD02172
:101AD000400570470146704730B540F2FF7C1CEA74
:101AE00011541DBF1CEA1355644565453FE0641958
:101AF00081EA030C6FF35F530CF0004C43F4801346
:101B0000C90241F0004141EA505EC5021100A5FB47
:101B1000020200284FF00000EEFB01204FF0000110
:101B2000E3FB052118BF42F00102401800214941A2
:101B3000E3FB0E01A4F580640D0302D2921840412C
:101B4000494154F1010470DD450872F1004250F141
:101B5000000051EB0451A1F5801102D441EA0C01BF
:101B600030BD40F2FF7E4CEA0E51002030BD0CEA41
:101B70001355644518BF654581EA030C0CF0004C11
:101B800041D050EA410E1CBF52EA430E02E06146CA
:101B9000002030BD24422C441BD15FEA050EF6D054
:101BA000090302BF01460020AEF1140EB1FA81F51F
:101BB000AEEB050401FA05FE0C35C5F1200100FA73
:101BC00005F5C8404EEA000E6FF35F5343F48013EF
:101BD0009CE733F00043B3FA83F504BFB2FA82FE08
:101BE00075440B3D641BB5F1200E2FBF02FA0EF3B6
:101BF000AB40C5F1200E22FA0EFE38BF43EA0E03B9
:101C0000AA40641C7CE750EA410E14BF52EA430E1E
:101C10006FF000014FF4001515EB430F8EBF19460E
:101C200015EB410F9DE7B4D830BDD4F10104B4F1F8
:101C300020050FDAC4F12005520828BF42F0010246
:101C400010FA05FE01FA05F57244E2BFE0402843B0
:101C5000E1400FE0352C9ADCC5F1200452EA400245
:101C600020FA05F218BF42F0010231FA05F0A14056
:101C70000A43002172F1004250F1000051EB0C01C7
:101C800030BD80B5FFF7D8FA006C02BDBBBBE1B137
:101C9000B2F5803F80F07E80022A1ED98C46B1FBCF
:101CA000F2F102FB11C31B0443EA1043B3FBF2FC45
:101CB00002FB1C3380B240EA0343B3FBF2F002FBA9
:101CC000103240EA0C4000237047022A05D98446AE
:101CD000B0FBF2F002FB10C270474AB105D100F030
:101CE000010249085FEA3000704700220023704774
:101CF00000F0E8B80B00020000210020704790427D
:101D000071EB030CF6D3B3F5803F2FD2F0B5B3FAE5
:101D100083F7B1FA81F4A7F10F0E3D1B5340CEF1CA
:101D2000200602FA0EF2F3415340B5F10F0746D8F0
:101D30000F3C2C444140C4F12006A040F1414140F9
:101D4000B1FBF3F603FB1611A2FB0645001BA941EC
:101D500002D2761E8018594180EA010221FA0EF360
:101D600062FA0EF200215A403046F0BD30B4B1FBA9
:101D7000F3FC03FB1C11A2FB0C45001BA94103D281
:101D8000ACF1010C8018594130BC02460B4660464C
:101D900000217047B2F1807F65D3F0B5B2FA82F7C7
:101DA000B1FA81F4C7F10F063D1B22FA06F307F1E1
:101DB000110EF24120355A40B5F10F07B8D9414014
:101DC000C4F12006A040F1414140B1FBF3FC03FB0C
:101DD0001C11A2FB0C45001BA94103D2BCF1010C54
:101DE000801859410F2F12D30F3FC90341EA5041C8
:101DF000B1FBF3F603FB1611A2FB0645D4EBC03092
:101E0000A94102D2761E8018594146EACC3C07B35C
:101E10004140C7F12006B840F1414140B1FBF3F623
:101E200003FB1611A2FB0645001BA94102D2761E38
:101E30008018594180EA010221FA0EF3C7F120040B
:101E400062FA0EF20CFA07F05A402CFA04F1304311
:101E5000F0BD80EA010221FA0EF3002162FA0EF2CF
:101E600060465A40F0BD8C46B1FBF2F102FB11C353
:101E70001B0243EA1063B3FBF2FC02FB1C331B02A0
:101E80004CEA002043EA1063B3FBF2FC02FB1C3374
:101E90001B024CEA002043EA1063B3FBF2FC02FB96
:101EA0001C331B024CEA002043EA1063B3FBF2FC34
:101EB00002FB1C324CEA002000237047012000F096
:101EC00003B8FEE77047FEE72021090326311820FA
:101ED000ABBEF9E781B00022425040580090009913
:101EE00001B07047405800B10120C0B27047D0F82F
:101EF0000403084018BF0120C0B2704700F20C5024
:101F000082600160704700F5A160016082607047E7
:101F1000D0F81805C0B2704701224250704730B562
:101F2000039D049C41EA420141EA83014FF0A04233
:101F300041EA052102EB800041EA0441C0F80017A4
:101F400030BDE0B500F00BF8012105E0E0B50B462F
:101F50000021002201910092FFF7E1FF07BD00215F
:101F6000019100910023012270470121DFF88824AC
:101F700001FA00F0106070472DE9F04104460D466B
:101F800090462179DFF874042C2212FB01F28618A6
:101F900006F12907787808B108207DE00FF280402B
:101FA00050F82110206800F040FA08B1112073E0C9
:101FB000286810F1010F04D0FFF7D7FF2868FFF75A
:101FC000C0FF686810F1010F1CBF0021FFF7BEFFC2
:101FD0002068A96900F2245211606B7D297D0B43B2
:101FE00093646A682968FFF789FF287D012814D166
:101FF000A86810F1010F1CBF0021FFF7A7FFE868D8
:1020000010F1010F04D0FFF7B0FFE868FFF799FF68
:10201000AA68E9682068FFF776FFC6F80480296996
:102020007068316060B32D7F20684FF48E71FFF7C8
:1020300051FF20684FF4A271FFF74CFF2068DFF8D2
:10204000C013C0F80413000300166901002803D46C
:10205000DFF8B023115406E0DFF8AC3300F00F00D6
:10206000184400F8041C21680903091608D4012249
:1020700001F01F00DFF894338240490943F8212022
:1020800004202168C1F800050022B261F2613A70B3
:102090007261012078700020BDE8F08138B50D46EE
:1020A00004464FF48E71FFF715FFA868296A405C5B
:1020B0002A6A521C2A62C4F81C0531BD2DE9F04180
:1020C000054617462A790E462C20DFF83013424386
:1020D0008C18284600F03EF808B1112038E06761FE
:1020E000A6602062002184F828104FF48E712868C1
:1020F000FFF7F0FE28680121816000262146FFF7E6
:10210000CDFF606818BB2F68D4F8148003E0214627
:102110003846FFF7C3FF206A40450CD24FF48E715A
:102120003846FFF7DFFE0028F1D194F82800002898
:10213000F4D00F2609E028684FF48E71FFF7D2FE25
:102140000028F8D029680120C8600020606130466E
:10215000BDE8F0810279A9492C20424388184169E1
:10216000080018BF0120C0B2704710B500F093F806
:1021700020684FF48471FFF7ADFE2068BDE8104081
:102180000021C9E670B50D460446A86900284FF441
:102190008471204605D1FFF79DFE2046BDE87040C2
:1021A000B6E6FFF797FE6E6A2046FFF7B1FEE968D4
:1021B0008855686A401C686270BD2DE9F041074689
:1021C0002C203C798D4B44431E19002370684FF43A
:1021D000017418B13D6805F541704460B06960B1A3
:1021E000F06930B1706810B13968C1F8044311204A
:1021F0004FE031610123F26103E0B261F16070628E
:10220000F36196F82900034304BF3846FFF7ADFF9A
:1022100070683A68002839D14FF4A2711046FFF770
:1022200059FE38684FF49271FFF75CFE0546386836
:102230004FF48471FFF756FE044638684FF4A271DC
:10224000FFF750FE804648EA04042C43E9D058EAE0
:10225000050007D138683146FFF794FF706AB1690D
:102260008842DED30020B0610DB1032011E0B8F147
:10227000000F18BF0F200CD196F8290039680028EC
:1022800007BF0120486001220A6001E0C2F8044350
:102290000020BDE8F08104464FF49271206819E6F1
:1022A0001FB50346012402918DF800400192684653
:1022B00019685A6890471FBDF8B5024600238DF88B
:1022C000003002919068019053616846116852682D
:1022D000904705B000BD2DE9FF414D4D4FF4007111
:1022E0002846464C4B4FFFF702FE04F128064FF4F8
:1022F000017810B34FF4927100F090F8E8B14FF408
:1023000092712846FFF7E6FDC7F80080707808B99B
:102310000121696002208DF800003F4801680160DA
:1023200003910021A06962680290A161E161E06807
:1023300021680190684690472AE004212846FFF76B
:10234000D6FD28B34FF4847100F068F800B321463D
:102350002846FFF717FFA069616A884218D1E06933
:1023600048B1E268616AA06100232069E060E3612E
:102370000020606209E0707808B901216960C7F83F
:1023800000800020E268A061616A2046FFF788FFB4
:102390004FF48E7100F042F8A8B16069216A814261
:1023A00006D2307820B921462846FFF777FE0AE0AA
:1023B0004FF48E712846FFF78DFD606918B1616991
:1023C0002046FFF779FF4FF4A27100F027F888B19B
:1023D0004FF4A2712846FFF77DFD707808B1012106
:1023E0002960A06930B10021A1612046E268616ADC
:1023F000FFF756FFBDE8FF81080500505C02002092
:102400008000020000E400E018ED00E000E100E0E0
:10241000002000400823004080240040284661E559
:10242000D72200000D480168084738B50D460C4911
:10243000884211D1002000F01DF8084908790024D5
:10244000002811BF01240D6001200871002000F058
:1024500018F80CB1112032BD002032BDB8020020A6
:102460000020004007490868401E086000D162B69D
:102470007047000000BF72B602480168491C016045
:102480007047EFE7C002002081B000224250405860
:102490000090009901B07047405800B10120C0B2CF
:1024A000704700F20C5001E000F5A160016082600D
:1024B000704730B5039D049C41EA420141EA830123
:1024C0004FF0A04241EA052102EB800041EA0441BD
:1024D000C0F8001730BDE0B500F00BF8012105E0B1
:1024E000E0B50B460021002201910092FFF7E1FFC9
:1024F00007BD0021019100910023012270470121B5
:10250000DFF8042401FA00F010607047F8B50446C3
:102510000D46217917462423DFF8F02313FB01F33E
:10252000D61896F8200008B10820F2BD0FF2084036
:1025300050F821102068FFF778FF08B11120F2BD94
:10254000286810F1010F04D0FFF7D9FF2868FFF7C2
:10255000C2FF686810F1010F1CBF0021FFF7C0FF28
:102560002068A96900F2245211606B7D297D0B431C
:1025700093646A682968FFF794FF287D012814D1C5
:10258000A86810F1010F1CBF0021FFF7A9FFE86840
:1025900010F1010F04D0FFF7B2FFE868FFF79BFFCF
:1025A000AA68E9682068FFF77FFF7760706829698B
:1025B0003160002838D02D7F20684FF48871FFF7F4
:1025C00063FF20684FF49071FFF75EFF20684FF4BF
:1025D0009271FFF759FF20684FF4A271FFF754FF83
:1025E00000F01AF92068DFF82813C0F8041300037C
:1025F00000166901002803D4DFF81823115406E0FF
:10260000DFF8143300F00F00184400F8041C2168B0
:102610000903091608D4012201F01F00DFF8FC327B
:102620008240490943F8212008202168C1F80005AB
:102630000022B261F26100217161012086F8200060
:102640000020F2BDF8B5054617462A790C4624202D
:10265000AE4942438E1804F06041B1F1005F28D1C9
:10266000284600F039F830BB7761B4604FF49071C0
:102670002868FFF709FF28684FF4AC71FFF704FFE3
:1026800070692968B36801F24452002713605060F2
:1026900001228A607068C8B928684FF49071FFF70A
:1026A000FBFE044600F014F80443F5D028B10F27D0
:1026B0000AE01020F2BD1120F2BD29680120C86097
:1026C00000F006F80028FBD0002070613846F2BD0B
:1026D00028684FF4AC71DFE602798C49242042432C
:1026E00088184169080018BF0120C0B270472DE961
:1026F000F84F05460E4628794FF0240806F060444E
:10270000DFF8089218FB00F0B4F1005F09EB00035A
:1027100014D1586800244FF4047A20B12F6807F5CB
:10272000417CCCF804A093469A696AB1DA693AB15F
:1027300010B12868C0F804A3112050E010204EE02A
:1027400001241961584603E0C3F818B0D96000208D
:10275000D8614FF488712868FFF796FE28684FF417
:10276000A271FFF791FE296801F23450002706603C
:10277000C0F804B014B90120086005E0D1F80022C7
:1027800042F02002C1F8002209F104022B7918FB63
:1027900003F3D05800BB2E4630684FF48871FFF722
:1027A0007BFE044630684FF4A271FFF775FE0546C4
:1027B00030684FF49271FFF76FFE2C430443EBD067
:1027C000327909F1180118FB02F841F8087000B1DC
:1027D00003271DB10F2701E0C1F804A33846BDE867
:1027E000F28F1FB50346012402918DF8004001923B
:1027F000684619685A6890471FBDF8B5024600231D
:102800008DF800300291906801905361684611681C
:102810005268904705B000BD20684FF4AC7133E6B4
:102820007FB53F4E4FF4927100F082F8374C3D4D2A
:10283000B0B14FF4927100F07DF802208DF80000E5
:10284000394801680160039100212868626802909C
:10285000A161E161E06821680190684690471FE04E
:102860004FF4887100F064F8D0B14FF4887100F033
:1028700061F82968A069814212D1E268E06958B123
:102880002A48036823F020030360E0692369A061FC
:10289000E3600020E06100E0A0612046FFF7A1FFB7
:1028A0004FF4A27100F044F868B14FF4A27100F047
:1028B00041F8A06938B10021A161E1612046296891
:1028C000E268FFF78EFF4FF4907100F031F858B1D5
:1028D0004FF4907100F02EF80121F160606918B199
:1028E00029692046FFF789FF4FF4AC7100F020F80A
:1028F00048B14FF4AC7100F01DF8606918B1296956
:102900002046FFF77AFF7FBD0805005088020020AF
:102910001003420000E400E018ED00E000E100E0F8
:10292000002000403C250040802400400022004060
:102930003046B1E53046A7E521280000F0B57848DB
:10294000784A016811F1010F08BF1178062905D1F5
:102950007549764C0B68C3F3042121601178062970
:1029600002BF9168C1F30311032902D1704B714971
:10297000196000F0FBF808BF1478062C6E496F4B05
:1029800003D11C68C4F342344C601478062C02BF97
:102990009468C4F30314032C04D1694C256825F012
:1029A0008075256000F0E2F808BF1478062C06D187
:1029B000644C002525600026666000240C601578B4
:1029C000062D01BF9468C4F30314032C8C6615789C
:1029D000062D02BF9468C4F30314032C08D15A4C8B
:1029E000052525600126A6670027A7603F256560AD
:1029F00000F0BCF803BF14789568C5F3031545686B
:102A0000062C26D1ED1E012D23D9504D504C2E6899
:102A100026606F686760AE68A660EF68E7602E6941
:102A200026616F696761AE692662EF6967622E6A27
:102A3000A6626F6AE762AE6A2663EF6A67632E6B0F
:102A400026646F6B6764AE6BA664EF6BE7642D6CF6
:102A5000256500F08BF808BF1478062C04D15B695B
:102A60003C4C03F04F032360036813F1010F08BFD0
:102A70001378062B06D1384A1368DC0744BF6FF081
:102A8000010313600268062A08D14268D21E022A96
:102A900004D9324A146844F480641460304AD36F15
:102AA00043F47003D367BFF34F8FBFF36F8F046896
:102AB0002C4B062C05D14068C01E032884BF9D689E
:102AC0000D62186800285CBF586800281CD51149A1
:102AD00001240C600E4C00F04DF815251D6000F02F
:102AE00049F85D6000F046F800230B6000F042F802
:102AF000BFF34F8F11681C4801F4E061014311607E
:102B0000BFF34F8F00BFFDE7034A04491160F0BDDA
:102B100000E4014004E50140400000200090D003A3
:102B200030010010E00F00F0240300104035014098
:102B300074C007400DF0ADBA3805004044020010E3
:102B4000FCED00E00C0100401056004004040010B1
:102B500020C50040E40E0040000400403C17004047
:102B60000CED00E0001200100400FA05046814F1F6
:102B7000010F704720680028FCD0704738B50578F1
:102B80007A4C635D23B1BDE83840001DFFF75ABDA4
:102B9000BDE838400C30FFF791BA38B50578734C72
:102BA000635D23B1BDE83840001DFFF7A0BDBDE85F
:102BB00038400C30FFF701BB01468868C968081A25
:102BC00070473EB502786A4C002A31D0022A26D0DE
:102BD00042D2017AE9B14068017804F1180000F0AE
:102BE0000CF9A56A20B101228DF80020019007E0C0
:102BF00004F11800FFF7E0FF20B100208DF800007D
:102C00006846A84704F11800FFF7D6FFA18B814260
:102C100002D300F07FF837BD0120207037BD0221BC
:102C20008DF800100122C068019000F074F810E0E7
:102C300004F12C0104F1300000F0ECF830B901226D
:102C400004F12C01201DFFF799FF37BD03208DF8FB
:102C500000006846A16A884737BD0000F8B5444EB9
:102C600088B005460C001F46B26208BF07203CD062
:102C700006F118006268216892B200F0AAF8A0BBC1
:102C8000E268A16892B206F1300000F0A2F860BBE1
:102C90004FEA0D0038A12022FEF76EFB686906900E
:102CA000297C01B101218DF814108DF81C70687C0D
:102CB00000B10E208DF815002E4AE8680290A86831
:102CC0000390301D2968019169680091694600F000
:102CD000C3F850B93070296811F1010F05D00122F5
:102CE00006F12D01301DFFF758FF09B0F0BD70B59A
:102CF0001F4C2678014604F1180000F08BF80546B9
:102D000036B10020207000F005F808B100F0D4F8CA
:102D1000284670BD012204F12D01201D3DE738B584
:102D20000146134D05F1300000F067F804001BD197
:102D30002A790E49885C20B105F10800FFF7CCFC28
:102D400003E005F11000FFF705FA68B905F12C0161
:102D500005F1300000F05EF830B9012205F12C01D8
:102D6000281DFFF70BFF0446204632BDAC020020B1
:102D700000000020C32B0000FFFFFFFFFFFFFFFF4D
:102D8000FFFFFFFFFFFFFFFF00000000000000004B
:102D90000000D6010601000010B50368C4688288EF
:102DA00014401955C168491CC16010BD10B50368B5
:102DB00084688088611801405B5C137010BD10B599
:102DC0000A4604460021FFF7F1FFA068401CA060FE
:102DD00010BD10B509B90E2010BD130002D0541E4D
:102DE000144201D0092010BD0160511E81800022D3
:102DF00082600021C160002010BD10B58268C368E8
:102E000084889A1A944203D3FFF7C6FF002010BDAE
:102E1000042010BD80B58268C3689A1A03D0FFF7FA
:102E2000CEFF002002BD052002BDFEE7F8B500E0A0
:102E3000F8B502788DF800204368019382688DF818
:102E40000820C068194A039002EB81026846916825
:102E50005268904705B000BDF8B5044688B02678A2
:102E6000124F07EB8600154645600A6982602022F2
:102E7000487FB8556846FEF77FFA04962678B85D15
:102E800040B1002D14BF0A4A00226946201DFFF7F9
:102E90003DFB08E0002D14BF064A0022694604F1FC
:102EA0000C00FFF769F809B0F0BD0000AC0200208B
:102EB0002D2E0000312E00001FB569460022002390
:102EC000002481E81C0002906A46002144F20100BF
:102ED00000F002F81FBDFEE772B609480168CA0794
:102EE00000D500BEBFF34F8F064907480A6802F4B9
:102EF000E06202430A60BFF34F8F00BFFDE700BFEF
:102F0000F0ED00E00CED00E00400FA054FF0A04009
:102F1000704730B5039D049C41EA420141EA8301B8
:102F20004FF0A04241EA052102EB800041EA044152
:102F3000C0F8001730BD1CB5012441B900906846A7
:102F4000FFF7E4FF00998C40C0F80C4513BD0F4A11
:102F500004FA00F0106013BD20A2105C0021EAE723
:102F60001EA2105C0121E6E710B500242046FFF701
:102F7000F7FF641C042CF9D310BD10B500242046C3
:102F8000FFF7EAFF641C042CF9D310BD08050050BC
:102F9000FEB50446E00710D55FF000050FA6002738
:102FA000019700970023705D01220121FFF7B1FF17
:102FB0006D1C042DF4D3FFF7D7FFA0070DD5002417
:102FC00007A500200190002100910323285D002225
:102FD000FFF79FFF641C042CF3D3F7BD11121314E9
:102FE0000D0E0F1038B584B00120FFF7D1FF17493F
:102FF00021A0009180228031019202910392072347
:1030000000226946FFF72AFE08B1FFF755FF00BF0F
:103010000FF23C000FF2500410A500F039F868469A
:10302000FFF765FE0028FAD19DF80000742804D14E
:10303000FFF7A3FF284600F02BF89DF800006B284F
:10304000EDD1FFF791FF2046E7E700000C010020DB
:1030500048656C6C6F205043200D0A004C6564730A
:10306000204F4E21200D0A004C656473204F4646C8
:1030700021200D0A000000000800000006000000EA
:1030800005000000070000000000000000E0D7017C
:103090000EB4C0B5024603A800210190009101AB17
:1030A0000121044878440C30FDF7AAF806BC5DF80D
:1030B00010FB00BFD1010000F0B402461068956813
:1030C0001318506803EB5004C0071CD54D441AE098
:1030D00013F8017B05F8017B491EF9D198B113F86B
:1030E000011BC6F38106032E08BF13F8016B01EB29
:1030F00006214942801C294405D011F8016B05F8CE
:10310000016B401EF9D1A3420ED013F8016B16F0EB
:10311000030104BF13F8011BC91C30090F28DBD1C0
:1031200013F8010B0F30D7E7F0BC02F10C00704729
:1031300080B50D49794430310C4A7A442E3291429F
:1031400003D00B49AFF3008002BD8DF800000122CF
:103150006946012000F00EF8012802D19DF8000018
:1031600002BD4FF0FF3002BD98CEFFFF94CEFFFFAF
:10317000C400002070B50C461546002604E014F883
:10318000010BFFF7CCFD761CAE42F8D3284670BD8C
:1031900030B4002512E050F8042BD30744BF4A4452
:1031A000521E091F042942F8045BFAD213468C0709
:1031B00044BF15809B1CC90748BF1D7050F8041BF5
:1031C0000029E8D130BC704710B50749794418315F
:1031D000064C7C44163404E00A68081D11448847F4
:1031E0000146A142F8D110BD2C00000048000000AB
:1031F0004EF68851CEF20001086840F47000086075
:10320000BFF34F8FBFF36F8F4FF00170E1EE100AE5
:10321000704700007DFFFFFFBC0100000C01002093
:103220000000000095FEFFFFC5000000AC0000009C
:1032300000000020FEE700000120C046002801D069
:10324000FFF7C2FFAFF300800020AFF30080FFF76D
:10325000C9FE00F000F800F001B8FEE70746384666
:10326000FEF732FEFBE7FEE70548014603B4684679
:1032700080F30988AFF30080FFF7BAFFFFF7DCFFA8
:10328000A5EDF5FE38B504460D462846FFF750FF7C
:10329000A84218BF0024204632BDFEE701488047FF
:1032A000014800473D29000069320000FEE7FEE7C3
:1032B000FEE7FEE7FEE7FEE7FEE7FEE7FEE7FEE7E6
:1032C000FEE7FEE7FEE7FEE7FEE7FEE7FEE7FEE7D6
:1032D000FEE7FEE7FEE7FEE7FEE7FEE7FEE7FEE7C6
:1032E000FEE7FEE7FEE7FEE7FEE7FEE7006200011D
:1032F00030012000400C6108F11701F0050790D063
:1033000003EC3200000452FF01E3CA12141005005E
:1033100000A2150000016D224476F11601432D1222
:103320002A431B123C21011007020401010C020078
:10333000205C04520C04211B6108F00312080100F8
:0333400020F46412
:04000005000032695C
:00000001FF
