:100000000820002091060000D305000035060000FE
:100010005B06000067060000A50600000000000067
:10002000000000000000000000000000A706000023
:10003000A906000000000000AB060000AD060000AD
:10004000AF060000B1060000B3060000B5060000D0
:10005000B7060000B9060000BB060000BD060000A0
:10006000BF060000C1060000C3060000C506000070
:10007000C7060000C9060000CB060000CD06000040
:10008000CF060000D1060000D3060000D506000010
:10009000D7060000D9060000DB060000DD060000E0
:1000A000DF060000E1060000E3060000E5060000B0
:1000B000E7060000E9060000000000000000000064
:1000C000EB060000ED060000EF060000F106000060
:1000D000F3060000F5060000F7060000000000002F
:1000E0000000000000000000000000000000000010
:1000F0000000000000000000000000000000000000
:1001000000000000000000000000000000000000EF
:1001100000000000000000000000000000000000DF
:1001200000000000000000000000000000000000CF
:1001300000000000000000000000000000000000BF
:1001400000000000000000000000000000000000AF
:10015000000000000000000000000000000000009F
:10016000000000000000000000000000000000008F
:10017000000000000000000000000000000000007F
:10018000000000000000000000000000000000006F
:10019000000000000000000000000000000000005F
:1001A000000000000000000000000000000000004F
:1001B000000000000000000000000000000000003F
:1001C000000000000000000000000000000000002F
:1001D000000000000000000000000000000000001F
:1001E000000000000000000000000000000000000F
:1001F00000000000000000000000000000000000FF
:10020000F0B57848784A016811F1010F08BF1178FC
:10021000062905D17549764C0B68C3F3042121608A
:100220001178062902BF9168C1F30311032902D195
:10023000704B7149196000F0FBF808BF1478062C68
:100240006E496F4B03D11C68C4F342344C60147880
:10025000062C02BF9468C4F30314032C04D1694C28
:10026000256825F08075256000F0E2F808BF147855
:10027000062C06D1644C002525600026666000240B
:100280000C601578062D01BF9468C4F30314032C89
:100290008C661578062D02BF9468C4F30314032CF2
:1002A00008D15A4C052525600126A6670027A760BE
:1002B0003F25656000F0BCF803BF14789568C5F36E
:1002C00003154568062C26D1ED1E012D23D9504D6E
:1002D000504C2E6826606F686760AE68A660EF6855
:1002E000E7602E6926616F696761AE692662EF6912
:1002F00067622E6AA6626F6AE762AE6A2663EF6A79
:1003000067632E6B26646F6B6764AE6BA664EF6BDE
:10031000E7642D6C256500F08BF808BF1478062C77
:1003200004D15B693C4C03F04F032360036813F175
:10033000010F08BF1378062B06D1384A1368DC0773
:1003400044BF6FF0010313600268062A08D14268B7
:10035000D21E022A04D9324A146844F4806414601C
:10036000304AD36F43F47003D367BFF34F8FBFF3AB
:100370006F8F04682C4B062C05D14068C01E0328E3
:1003800084BF9D680D62186800285CBF586800280B
:100390001CD5114901240C600E4C00F04DF81525B8
:1003A0001D6000F049F85D6000F046F800230B6026
:1003B00000F042F8BFF34F8F11681C4801F4E06170
:1003C00001431160BFF34F8F00BFFDE7034A0449AB
:1003D0001160F0BD00E4014004E501400000002090
:1003E0000090D00330010010E00F00F02403001053
:1003F0004035014074C007400DF0ADBA38050040EB
:1004000044020010FCED00E00C01004010560040DA
:100410000404001020C50040E40E00400004004029
:100420003C1700400CED00E0001200100400FA053B
:10043000046814F1010F704720680028FCD0704751
:100440004FF0A040704730B5039D049C41EA420143
:1004500041EA83014FF0A04241EA052102EB80000E
:1004600041EA0441C0F8001730BD1CB5012441B970
:1004700000906846FFF7E4FF00998C40C0F80C45F7
:1004800013BD164A04FA00F0106013BD28A2105CD8
:100490000021EAE726A2105C0121E6E710B500245E
:1004A0002046FFF7F7FF641C042CF9D310BD10B5EC
:1004B00000242046FFF7EAFF641C042CF9D310BD8A
:1004C0001BA1085C06490A68012303FA00F020EA30
:1004D00002034B6010408860704700000805005020
:1004E00004050050FEB50446E00710D55FF0000596
:1004F0000FA60027019700970023705D01220121BC
:10050000FFF7A1FF6D1C042DF4D3FFF7C7FFA00771
:100510000DD5002407A500200190002100910323A0
:10052000285D0022FFF78FFF641C042CF3D3F7BD76
:10053000111213140D0E0F10000000000000000037
:1005400010B5040008D000BF15A14FF47A4041F067
:1005500001018847641EF6D110BD80B50120FFF768
:10056000C1FF0020FFF792FF00F013F80020FFF713
:1005700091FF00F00EF80220FFF7A2FF00F009F84B
:10058000FFF795FF00F005F8FFF788FF00F001F88E
:10059000E7E74FF4FA70D3E7000000000000000026
:1005A0000338FDD8704700000EE00268436802443B
:1005B00008305FEAC37C44BF4B445B1E52F804CB57
:1005C00043F804CB091FF9D150F8041B0029ECD1E2
:1005D0007047FEE710B5074979441831064C7C4452
:1005E000163404E00A68081D114488470146A142F8
:1005F000F8D110BD2C0000003C0000004EF68851E0
:10060000CEF20001086840F470000860BFF34F8F1D
:10061000BFF36F8F4FF00170E1EE100A70470000DA
:1006200089FFFFFF040000007800000000000020A8
:1006300000000000FEE700000120C046002801D0B5
:10064000FFF7C8FFAFF300800020AFF30080FFF793
:1006500084FF00F000F800F001B8FEE707463846D6
:1006600000F002F8FBE7FEE72021090326311820FD
:10067000ABBEF9E70548014603B4684680F3098834
:10068000AFF30080FFF7BAFFFFF7D6FFA5EDF5FE49
:10069000014880470148004701020000750600003C
:1006A0000090D003FEE7FEE7FEE7FEE7FEE7FEE789
:1006B000FEE7FEE7FEE7FEE7FEE7FEE7FEE7FEE712
:1006C000FEE7FEE7FEE7FEE7FEE7FEE7FEE7FEE702
:1006D000FEE7FEE7FEE7FEE7FEE7FEE7FEE7FEE7F2
:1006E000FEE7FEE7FEE7FEE7FEE7FEE7FEE7FEE7E2
:0806F000FEE7FEE7FEE7FEE76E
:04000005000006757C
:00000001FF
