:1000000008200020C1050000030500006505000070
:100010008B05000097050000D505000000000000DA
:10002000000000000000000000000000D7050000F4
:10003000D905000000000000DB050000DD05000020
:10004000DF050000E1050000E3050000E505000014
:10005000E7050000E9050000EB050000ED050000E4
:10006000EF050000F1050000F3050000F5050000B4
:10007000F7050000F9050000FB050000FD05000084
:10008000FF05000001060000030600000506000051
:1000900007060000090600000B0600000D06000020
:1000A0000F060000110600001306000015060000F0
:1000B0001706000019060000000000000000000004
:1000C0001B0600001D0600001F06000021060000A0
:1000D000230600002506000027060000000000009F
:1000E0000000000000000000000000000000000010
:1000F0000000000000000000000000000000000000
:1001000000000000000000000000000000000000EF
:1001100000000000000000000000000000000000DF
:1001200000000000000000000000000000000000CF
:1001300000000000000000000000000000000000BF
:1001400000000000000000000000000000000000AF
:10015000000000000000000000000000000000009F
:10016000000000000000000000000000000000008F
:10017000000000000000000000000000000000007F
:10018000000000000000000000000000000000006F
:10019000000000000000000000000000000000005F
:1001A000000000000000000000000000000000004F
:1001B000000000000000000000000000000000003F
:1001C000000000000000000000000000000000002F
:1001D000000000000000000000000000000000001F
:1001E000000000000000000000000000000000000F
:1001F00000000000000000000000000000000000FF
:10020000BFF34F8F854986480A6802F4E0620243D3
:100210000A60BFF34F8F00BFFDE7F8B58548864AF7
:10022000016811F1010F08BF1178062905D1834932
:10023000834C0B68C3F3042121601178062902BFA7
:100240009168C1F30311032902D17E4B7E491960E5
:10025000036813F1010F08BF1378062B7B497C4C10
:1002600003D12368C3F342334B601578794B062DD5
:1002700002BF9568C5F30315032D03D15D6F25F00B
:1002800080755D67056815F1010F08BF1578062DAB
:1002900006D1714D00262E6000276F6000250D608D
:1002A0001678062E01BF9568C5F30315032D8D66DC
:1002B0001678062E02BF9568C5F30315032D0AD1E3
:1002C000664D05262E600127AF674FF0000CC5F87C
:1002D00008C03F266E60056815F1010F03BF157851
:1002E0009668C6F303164668062D36D1F61E012E13
:1002F00033D95B4E5B4D37682F60D6F804C0C5F824
:1003000004C0B768AF60D6F80CC0C5F80CC0376938
:100310002F61D6F814C0C5F814C0B7692F62D6F89B
:100320001CC0C5F824C0376AAF62D6F824C0C5F82F
:100330002CC0B76A2F63D6F82CC0C5F834C0376B11
:100340002F64D6F834C0C5F844C0B76BAF64D6F894
:100350003CC0C5F84CC0366C2E65056815F1010F20
:1003600008BF1578062D04D164693F4D04F04F0491
:100370002C60046814F1010F08BF1478062C06D114
:100380003A4A1468E50744BF6FF00104146002683C
:10039000062A08D14268D21E022A04D9344A1568B6
:1003A00045F4806515601A6842F470021A60BFF364
:1003B0004F8FBFF36F8F03682E4A062B05D140681D
:1003C000C01E032884BF94680C62D0681549164B80
:1003D000C40708D501251D6000F04EF8D06840081C
:1003E0004000D0600EE0106800285CBF5068002814
:1003F00010D501251D6000F03FF81524146000F0B1
:100400003BF8546000F038F800221A6000F034F82D
:10041000FFF7F6FE054906480860F1BD0CED00E067
:100420000400FA0500E4014004E50140000000205A
:100430000090D00330010010E00F00F02403001002
:100440004035014074C007400DF0ADBA380500409A
:100450004402001088ED00E00C01004010560040FE
:100460000404001020C50040E40E004000040040D9
:100470003C1700400012001008680028FCD07047AC
:1004800010B5040008D000BF11A14FF47A4041F02C
:1004900001018847641EF6D110BD38B50849094CE2
:1004A000032008604FF4007525604FF4FA70FFF7E1
:1004B000E7FF65604FF4FA70FFF7E2FFF4E7000032
:1004C0002407005008050050000000000000000054
:1004D0000338FDD8704700000EE00268436802440C
:1004E00008305FEAC37C44BF4B445B1E52F804CB28
:1004F00043F804CB091FF9D150F8041B0029ECD1B3
:100500007047FEE710B5074979441831064C7C4422
:10051000163404E00A68081D114488470146A142C8
:10052000F8D110BD2C0000003C0000004EF68851B0
:10053000CEF20001086840F470000860BFF34F8FEE
:10054000BFF36F8F4FF00170E1EE100A70470000AB
:1005500089FFFFFF04000000780000000000002079
:1005600000000000FEE700000120C046002801D086
:10057000FFF7C8FFAFF300800020AFF30080FFF764
:100580008CFF00F000F800F001B8FEE7074638469F
:1005900000F002F8FBE7FEE72021090326311820CE
:1005A000ABBEF9E70548014603B4684680F3098805
:1005B000AFF30080FFF7BAFFFFF7D6FFA5EDF5FE1A
:1005C00001488047014800471B020000A5050000C4
:1005D0000090D003FEE7FEE7FEE7FEE7FEE7FEE75A
:1005E000FEE7FEE7FEE7FEE7FEE7FEE7FEE7FEE7E3
:1005F000FEE7FEE7FEE7FEE7FEE7FEE7FEE7FEE7D3
:10060000FEE7FEE7FEE7FEE7FEE7FEE7FEE7FEE7C2
:10061000FEE7FEE7FEE7FEE7FEE7FEE7FEE7FEE7B2
:08062000FEE7FEE7FEE7FEE73E
:04000005000005A54D
:00000001FF
