:1000000010200020CD070000DB0600007107000073
:1000100097070000A3070000ED07000000000000A4
:10002000000000000000000000000000EF070000DA
:10003000F107000000000000F3070000F5070000D2
:10004000F7070000F9070000FB070000FD070000AC
:10005000FF07000001080000030800000508000079
:100060007B05000007080000090800000B080000DD
:100070000D0800000F080000110800001308000020
:100080001508000017080000190800001B080000F0
:100090001D0800001F0800002108000023080000C0
:1000A0002508000027080000290800002B08000090
:1000B0002D0800002F0800000000000000000000D4
:1000C0003108000033080000350800003708000040
:1000D000390800003B0800003D0800000000000057
:1000E0000000000000000000000000000000000010
:1000F0000000000000000000000000000000000000
:1001000000000000000000000000000000000000EF
:1001100000000000000000000000000000000000DF
:1001200000000000000000000000000000000000CF
:1001300000000000000000000000000000000000BF
:1001400000000000000000000000000000000000AF
:10015000000000000000000000000000000000009F
:10016000000000000000000000000000000000008F
:10017000000000000000000000000000000000007F
:10018000000000000000000000000000000000006F
:10019000000000000000000000000000000000005F
:1001A000000000000000000000000000000000004F
:1001B000000000000000000000000000000000003F
:1001C000000000000000000000000000000000002F
:1001D000000000000000000000000000000000001F
:1001E000000000000000000000000000000000000F
:1001F00000000000000000000000000000000000FF
:10020000F0B57848784A016811F1010F08BF1178FC
:10021000062905D17549764C0B68C3F3042121608A
:100220001178062902BF9168C1F30311032902D195
:10023000704B7149196000F0FBF808BF1478062C68
:100240006E496F4B03D11C68C4F342344C60147880
:10025000062C02BF9468C4F30314032C04D1694C28
:10026000256825F08075256000F0E2F808BF147855
:10027000062C06D1644C002525600026666000240B
:100280000C601578062D01BF9468C4F30314032C89
:100290008C661578062D02BF9468C4F30314032CF2
:1002A00008D15A4C052525600126A6670027A760BE
:1002B0003F25656000F0BCF803BF14789568C5F36E
:1002C00003154568062C26D1ED1E012D23D9504D6E
:1002D000504C2E6826606F686760AE68A660EF6855
:1002E000E7602E6926616F696761AE692662EF6912
:1002F00067622E6AA6626F6AE762AE6A2663EF6A79
:1003000067632E6B26646F6B6764AE6BA664EF6BDE
:10031000E7642D6C256500F08BF808BF1478062C77
:1003200004D15B693C4C03F04F032360036813F175
:10033000010F08BF1378062B06D1384A1368DC0773
:1003400044BF6FF0010313600268062A08D14268B7
:10035000D21E022A04D9324A146844F4806414601C
:10036000304AD36F43F47003D367BFF34F8FBFF3AB
:100370006F8F04682C4B062C05D14068C01E0328E3
:1003800084BF9D680D62186800285CBF586800280B
:100390001CD5114901240C600E4C00F04DF81525B8
:1003A0001D6000F049F85D6000F046F800230B6026
:1003B00000F042F8BFF34F8F11681C4801F4E06170
:1003C00001431160BFF34F8F00BFFDE7034A0449AB
:1003D0001160F0BD00E4014004E501400000002090
:1003E0000090D00330010010E00F00F02403001053
:1003F0004035014074C007400DF0ADBA38050040EB
:1004000044020010FCED00E00C01004010560040DA
:100410000404001020C50040E40E00400004004029
:100420003C1700400CED00E0001200100400FA053B
:10043000046814F1010F704720680028FCD0704751
:1004400081B00022425040580090009901B070479E
:10045000F8B50D4604460C21237957484B43C6187E
:10046000307A08B10820F2BD3260002768687060F9
:1004700007E04FF4A072FBB202EB8301FFF7E0FF4D
:100480007F1C62792068F9B29142F2D3000BE978BF
:1004900042B2490140B2002802D44848815405E0E4
:1004A000474B02F00F021A4402F8041C2168090BA2
:1004B00048B2002805D4012201F01F00414B00F092
:1004C0001AF821686878D1F8042560F30102C1F8B0
:1004D0000425A878D1F8082560F30102C1F80825A1
:1004E0002878D1F8102560F30302C1F81025012007
:1004F00030720020F2BD49B28240490943F8212000
:10050000704702682C4B012111600222FFE701793C
:100510000C204143581802727047F8B504460E4645
:100520004FF4803720681546B7404BB14FF4A072A6
:1005300002EB8601FFF784FF2268C2F8047301E032
:10054000C0F80873206800EB8601C1F84055F1BD82
:10055000F8B51C460568069BD5F8006240F2011705
:100560008F40BE43C5F80062D5F800623443C5F839
:10057000004201B0BDE8F040CFE7F8B500260E4CD0
:10058000114D4FF4A07101EB86073AB2A85870B133
:100590000E4908684FF48032B240104207D039B299
:1005A0002846FFF74DFF6168226838B29047761CF5
:1005B000042EE6DBF1BD00000400002000E400E0B2
:1005C00018ED00E000E100E00080004004830040FE
:1005D000B0F5A07F08D11D480168CA4302F080022F
:1005E000426001F080018160704700003EB500BFAD
:1005F0001EA0174AD0E90045CDE901450DF10401DF
:1006000018A42046FFF724FF08B100F033F8114882
:100610000268114801230093002100F04FF80246C0
:10062000012300212046FFF793FF37BD80B50B491A
:100630000B4B0320086080221A60FFF7D7FF00BF32
:1006400008A0FFF75EFF30BFFDE700000405005083
:10065000D105000010850040003E49001C070050F5
:100660000805005000800040000400000000030660
:10067000000000001FB5694600220023002481E825
:100680001C0002906A46002144F2010000F026F8A6
:100690001FBD0EE002684368024408305FEAC37C75
:1006A00044BF4B445B1E52F804CB43F804CB091FF4
:1006B000F9D150F8041B0029ECD17047D2B2203A8E
:1006C00022BF21FA02F0002170472032D141D040F0
:1006D00048409140D14048407047FEE772B6094813
:1006E0000168CA0700D500BEBFF34F8F064907480F
:1006F0000A6802F4E06202430A60BFF34F8F00BF52
:10070000FDE700BFF0ED00E00CED00E00400FA05AD
:1007100010B5074979441831064C7C44163404E07E
:100720000A68081D114488470146A142F8D110BD4E
:100730002C0000003C0000004EF68851CEF2000173
:10074000086840F470000860BFF34F8FBFF36F8FED
:100750004FF00170E1EE100A7047000037FFFFFF15
:1007600010000000780000000000002000000000E1
:10077000FEE700000120C046002801D0FFF7C8FFB7
:10078000AFF300800020AFF30080FFF74FFF00F0D1
:1007900000F800F001B8FEE70746384600F002F81E
:1007A000FBE7FEE72021090326311820ABBEF9E75D
:1007B0000548014603B4684680F30988AFF300801A
:1007C000FFF7BAFFFFF7D6FFA5EDF5FE014880471A
:1007D0000148004701020000B10700000090D0036B
:1007E000000000000000000000000000FEE7FEE73F
:1007F000FEE7FEE7FEE7FEE7FEE7FEE7FEE7FEE7D1
:10080000FEE7FEE7FEE7FEE7FEE7FEE7FEE7FEE7C0
:10081000FEE7FEE7FEE7FEE7FEE7FEE7FEE7FEE7B0
:10082000FEE7FEE7FEE7FEE7FEE7FEE7FEE7FEE7A0
:0E083000FEE7FEE7FEE7FEE7FEE7FEE7FEE777
:04000005000007B13F
:00000001FF
