:1000000050200020190B000013070000DF0900003A
:10001000BD0A0000E30A0000EF0A00000000000033
:100020000000000000000000000000002D0B000098
:100030002F0B000000000000310B0000330B00000C
:10004000350B0000370B0000390B00003B0B0000A4
:100050003D0B00003F0B000053050000410B00006A
:10006000430B0000450B0000470B0000490B00004C
:100070004B0B00004D0B00004F0B0000510B00001C
:10008000530B0000550B0000570B0000590B0000EC
:100090005B0B00005D0B00005F0B0000610B0000BC
:1000A000630B0000650B0000670B0000690B00008C
:1000B0006B0B00006D0B0000000000000000000052
:1000C0006F0B0000710B0000730B0000750B00003C
:1000D000770B0000790B00007B0B00000000000094
:1000E0000000000000000000000000000000000010
:1000F0000000000000000000000000000000000000
:1001000000000000000000000000000000000000EF
:1001100000000000000000000000000000000000DF
:1001200000000000000000000000000000000000CF
:1001300000000000000000000000000000000000BF
:1001400000000000000000000000000000000000AF
:10015000000000000000000000000000000000009F
:10016000000000000000000000000000000000008F
:10017000000000000000000000000000000000007F
:10018000000000000000000000000000000000006F
:10019000000000000000000000000000000000005F
:1001A000000000000000000000000000000000004F
:1001B000000000000000000000000000000000003F
:1001C000000000000000000000000000000000002F
:1001D000000000000000000000000000000000001F
:1001E000000000000000000000000000000000000F
:1001F00000000000000000000000000000000000FF
:1002000000F1804000F5C0400068012818BF0020C0
:1002100070471CB5044600F009F800210160204633
:1002200000F004F800680090009913BDF6E04FF06C
:10023000A040704730B5039D049C41EA420141EA69
:1002400083014FF0A04241EA052102EB800041EA20
:100250000441C0F8001730BD11B581B00C4601A8AB
:10026000FFF7E5FF00F5E060019950F8212022F446
:10027000403240F82120019A50F8221041EA04410E
:1002800040F8221013BD01B56846FFF7D0FFD0F843
:1002900010050099C84000F0010002BD78B50FF2CA
:1002A000E03425680095034608E05DF82350D5F852
:1002B000206542F8046BC5F820655B1C0D18AB4245
:1002C000F3D371BD02460020510908BF4FF0FF3043
:1002D00002F01F02D04000F00100704702460120EA
:1002E00002F00703D2089840895C08407047DFF8A5
:1002F0006C13084490F92420082A8041C00F7047ED
:10030000DFF85813084490F92420082A01DB012063
:10031000704700207047DFF84413084490F9242008
:10032000D043C00F704710B500F005F81843FFE741
:1003300081F8450010BDDFF8242302EBD001012431
:1003400091F8453000F0070004FA00F07047F0B56E
:1003500003464FF0FF30140007BF0824092500248E
:100360000825DFF8F86200E0641CAC420ED256F8B3
:10037000247017F1010FF7D1F01880F8244046F8E7
:10038000241012B9301980F83C30204640B2F0BD3C
:10039000DFF8C8124FF0FF3241F820200828A4BF30
:1003A000081880F83C20704738B5DFF8B04294F860
:1003B000490008B1082032BD0025E8B2FFF782FFEE
:1003C00028B1E9B221444FF0FF3081F824006D1CC0
:1003D000EAB2202AF1DB0025E8B2FFF7D9FF6D1C55
:1003E000E8B20928F8DB042104F1450000F04AF9DD
:1003F000DFF86C12C02008704022DFF868321A6003
:100400004FF4BE70FFF705FFDFF85C124FF00040BD
:100410000860012284F84920002032BD00F18040AC
:1004200000F5C0407047FEB505460F461646FFF77B
:1004300072FF002408B1082449E0BA78520802F09B
:10044000010231462846FFF782FF064616F1010FEA
:100450003CD0B878410717D4C0070AD54FF0A04167
:1004600001EB8500D0F8001721F00201C0F8001759
:1004700007E000210194009100227B782846FFF7D5
:10048000D9FE2846FFF74FFFB8783978820713D591
:10049000764A774852F82630034042F826302D023B
:1004A00052F8263005F4F85509041D4301F4403193
:1004B0000D4342F826500AE068488219304492F809
:1004C0003C3043EA811380F83C3000E004242046AD
:1004D000FEBDF8B50E460546604CFFF711FF6719E3
:1004E000B0B197F92400204490F93C000006800F39
:1004F000032804D12846FFF7C6FE10B103E0012807
:1005000001D1022100E003212846BDE8F440A3E622
:100510002846FFF7ECFED8B197F92450534850F81D
:10052000251041F0010140F82510A80000F5807069
:1005300000B2FFF76EFE002E1EBF97F9241054F88C
:100540002100002804D00121474801FA05F5056083
:10055000F1BD2DE9FC41002500954FF4807601277F
:10056000082430B2FFF74CFE00281EBF3E4800684A
:10057000384203D030B2FFF74CFE3D437F00361DBA
:10058000641EEED14FF4BE70FFF73AFE38B14FF45F
:10059000BE70FFF73EFE00F06FF845F000452806FC
:1005A0002E4F19D001264FF00008304C2E420DD0AE
:1005B00054F8280054F8281057F82820130005D0C4
:1005C000090C01F00301C0F304209047760008F104
:1005D0000108B8F1080FE9D3002D3CD597F9445034
:1005E00015F1010F32D0ECB224F0C0046946204668
:1005F000FFF774FE50B34FF0A04000EB84012D06CE
:10060000D1F80067360CAD0F06F00306022E0CBFC2
:10061000032102212046FFF71FFE01201549A040BB
:100620000860391991F9242057F8222010000DD0C4
:10063000032D08D0022E02D1012D07D103E0032E95
:1006400008BF022D02D129462046904700F014F839
:1006500000980028C2D1BDE8F3810000040000200A
:1006600006E400E000E100E00463004010650040A3
:10067000FFE0FCFF200500506A46012100200DE646
:1006800000000050002200F015B80EE00268436838
:10069000024408305FEAC37C44BF4B445B1E52F8FF
:1006A00004CB43F804CB091FF9D150F8041B0029EF
:1006B000ECD17047401810F0030308D0C91A1FD3BB
:1006C000DB0748BF00F8012D28BF20F8022D1300DA
:1006D00030B414461546103928BF20E93C00FAD83A
:1006E000490728BF20E90C0048BF40F8042D8900C5
:1006F00028BF20F8022D48BF00F8012D30BC7047FC
:10070000C91818BF00F8012DCB0728BF00F8012D2C
:100710007047FEE7F0B57848784A016811F1010F9B
:1007200008BF1178062905D17549764C0B68C3F3CB
:10073000042121601178062902BF9168C1F30311D9
:10074000032902D1704B7149196000F0FBF808BF12
:100750001478062C6E496F4B03D11C68C4F34234E5
:100760004C601478062C02BF9468C4F30314032C65
:1007700004D1694C256825F08075256000F0E2F809
:1007800008BF1478062C06D1644C0025256000268D
:10079000666000240C601578062D01BF9468C4F3D0
:1007A0000314032C8C661578062D02BF9468C4F3DD
:1007B0000314032C08D15A4C052525600126A66791
:1007C0000027A7603F25656000F0BCF803BF1478E0
:1007D0009568C5F303154568062C26D1ED1E012D3D
:1007E00023D9504D504C2E6826606F686760AE6804
:1007F000A660EF68E7602E6926616F696761AE6980
:100800002662EF6967622E6AA6626F6AE762AE6A65
:100810002663EF6A67632E6B26646F6B6764AE6B4B
:10082000A664EF6BE7642D6C256500F08BF808BFBC
:100830001478062C04D15B693C4C03F04F03236011
:10084000036813F1010F08BF1378062B06D1384A4D
:100850001368DC0744BF6FF0010313600268062AC7
:1008600008D14268D21E022A04D9324A146844F4DC
:1008700080641460304AD36F43F47003D367BFF3CE
:100880004F8FBFF36F8F04682C4B062C05D1406847
:10089000C01E032884BF9D680D62186800285CBFD5
:1008A000586800281CD5114901240C600E4C00F03A
:1008B0004DF815251D6000F049F85D6000F046F820
:1008C00000230B6000F042F8BFF34F8F11681C4803
:1008D00001F4E06101431160BFF34F8F00BFFDE7FA
:1008E000034A04491160F0BD00E4014004E5014001
:1008F000000000200090D00330010010E00F00F055
:10090000240300104035014074C007400DF0ADBA1B
:100910003805004044020010FCED00E00C010040EE
:10092000105600400404001020C50040E40E0040B2
:10093000000400403C1700400CED00E000120010E5
:100940000400FA05046814F1010F704720680028BC
:10095000FCD0704713480168CA4302F0800242602D
:1009600001F08001816070471CB5FFF71DFD08B1E3
:1009700000F026F80C490D4B10A4032008608022DB
:100980001A6021680A4A00918DF801006946052025
:10099000FFF749FD08B100F013F801210520FFF72A
:1009A00098FD13BD040500501C07005008050050B9
:1009B0005509000080B5FFF7D7FFFEE702000200EF
:1009C0001FB5694600220023002481E81C00029024
:1009D0006A46002144F2010000F002F81FBDFEE764
:1009E00072B609480168CA0700D500BEBFF34F8F31
:1009F000064907480A6802F4E06202430A60BFF34E
:100A00004F8F00BFFDE700BFF0ED00E00CED00E010
:100A10000400FA0530B4002512E050F8042BD30787
:100A200044BF4A44521E091F042942F8045BFAD20B
:100A300013468C0744BF15809B1CC90748BF1D7017
:100A400050F8041B0029E8D130BC704710B50749A5
:100A500079441831064C7C44163404E00A68081DB9
:100A6000114488470146A142F8D110BD2C00000076
:100A70004C0000004EF68851CEF20001086840F4A8
:100A800070000860BFF34F8FBFF36F8F4FF001709E
:100A9000E1EE100A704700007DFFFFFF4C000000F0
:100AA0000400002000000000E3FBFFFF0400000042
:100AB000780000000000002000000000FEE70000B9
:100AC0000120C046002801D0FFF7C0FFAFF300802F
:100AD0000020AFF30080FFF76DFF00F000F800F09A
:100AE00001B8FEE70746384600F002F8FBE7FEE7EC
:100AF0002021090326311820ABBEF9E7054801463D
:100B000003B4684680F30988AFF30080FFF7B2FFB3
:100B1000FFF7D6FFA5EDF5FE0148804701480047E5
:100B200015070000FD0A00000090D003FEE7FEE775
:100B3000FEE7FEE7FEE7FEE7FEE7FEE7FEE7FEE78D
:100B4000FEE7FEE7FEE7FEE7FEE7FEE7FEE7FEE77D
:100B5000FEE7FEE7FEE7FEE7FEE7FEE7FEE7FEE76D
:100B6000FEE7FEE7FEE7FEE7FEE7FEE7FEE7FEE75D
:0C0B7000FEE7FEE7FEE7FEE7FEE7FEE71B
:0400000500000AFDF0
:00000001FF
