:1000000008200020C5050000070500006905000064
:100010008F0500009B050000D905000000000000CE
:10002000000000000000000000000000DB050000F0
:10003000DD05000000000000DF050000E105000014
:10004000E3050000E5050000E7050000E905000004
:10005000EB050000ED050000EF050000F1050000D4
:10006000F3050000F5050000F7050000F9050000A4
:10007000FB050000FD050000FF0500000106000073
:100080000306000005060000070600000906000040
:100090000B0600000D0600000F0600001106000010
:1000A00013060000150600001706000019060000E0
:1000B0001B0600001D0600000000000000000000FC
:1000C0001F06000021060000230600002506000090
:1000D00027060000290600002B0600000000000093
:1000E0000000000000000000000000000000000010
:1000F0000000000000000000000000000000000000
:1001000000000000000000000000000000000000EF
:1001100000000000000000000000000000000000DF
:1001200000000000000000000000000000000000CF
:1001300000000000000000000000000000000000BF
:1001400000000000000000000000000000000000AF
:10015000000000000000000000000000000000009F
:10016000000000000000000000000000000000008F
:10017000000000000000000000000000000000007F
:10018000000000000000000000000000000000006F
:10019000000000000000000000000000000000005F
:1001A000000000000000000000000000000000004F
:1001B000000000000000000000000000000000003F
:1001C000000000000000000000000000000000002F
:1001D000000000000000000000000000000000001F
:1001E000000000000000000000000000000000000F
:1001F00000000000000000000000000000000000FF
:10020000F0B57848784A016811F1010F08BF1178FC
:10021000062905D17549764C0B68C3F3042121608A
:100220001178062902BF9168C1F30311032902D195
:10023000704B7149196000F0FBF808BF1478062C68
:100240006E496F4B03D11C68C4F342344C60147880
:10025000062C02BF9468C4F30314032C04D1694C28
:10026000256825F08075256000F0E2F808BF147855
:10027000062C06D1644C002525600026666000240B
:100280000C601578062D01BF9468C4F30314032C89
:100290008C661578062D02BF9468C4F30314032CF2
:1002A00008D15A4C052525600126A6670027A760BE
:1002B0003F25656000F0BCF803BF14789568C5F36E
:1002C00003154568062C26D1ED1E012D23D9504D6E
:1002D000504C2E6826606F686760AE68A660EF6855
:1002E000E7602E6926616F696761AE692662EF6912
:1002F00067622E6AA6626F6AE762AE6A2663EF6A79
:1003000067632E6B26646F6B6764AE6BA664EF6BDE
:10031000E7642D6C256500F08BF808BF1478062C77
:1003200004D15B693C4C03F04F032360036813F175
:10033000010F08BF1378062B06D1384A1368DC0773
:1003400044BF6FF0010313600268062A08D14268B7
:10035000D21E022A04D9324A146844F4806414601C
:10036000304AD36F43F47003D367BFF34F8FBFF3AB
:100370006F8F04682C4B062C05D14068C01E0328E3
:1003800084BF9D680D62186800285CBF586800280B
:100390001CD5114901240C600E4C00F04DF81525B8
:1003A0001D6000F049F85D6000F046F800230B6026
:1003B00000F042F8BFF34F8F11681C4801F4E06170
:1003C00001431160BFF34F8F00BFFDE7034A0449AB
:1003D0001160F0BD00E4014004E501400000002090
:1003E0000090D00330010010E00F00F02403001053
:1003F0004035014074C007400DF0ADBA38050040EB
:1004000044020010FCED00E00C01004010560040DA
:100410000404001020C50040E40E00400004004029
:100420003C1700400CED00E0001200100400FA053B
:10043000046814F1010F704720680028FCD0704751
:100440004FF0A040704730B5039D049C41EA420143
:1004500041EA83014FF0A04241EA052102EB80000E
:1004600041EA0441C0F8001730BD0121194A01FAE0
:1004700000F01060704701B56846FFF7E1FFD0F863
:1004800010050099C84000F0010002BDE0B5002051
:10049000019000900023012201210720FFF7D3FFE4
:1004A000002101910091032300220820FFF7CBFFD8
:1004B0000720FFF7DAFF0820FFF7DDFF0028FAD159
:1004C0000549802008600820FFF7D5FF0028FAD0F2
:1004D000EEE70000080500500C0500500EE0026831
:1004E0004368024408305FEAC37C44BF4B445B1E50
:1004F00052F804CB43F804CB091FF9D150F8041B80
:100500000029ECD17047FEE710B50749794418314E
:10051000064C7C44163404E00A68081D11448847E0
:100520000146A142F8D110BD2C0000003C000000A3
:100530004EF68851CEF20001086840F47000086061
:10054000BFF34F8FBFF36F8F4FF00170E1EE100AD2
:100550007047000089FFFFFF0400000078000000E2
:100560000000002000000000FEE700000120C0465F
:10057000002801D0FFF7C8FFAFF300800020AFF3E1
:100580000080FFF783FF00F000F800F001B8FEE7FD
:100590000746384600F002F8FBE7FEE72021090392
:1005A00026311820ABBEF9E70548014603B468467A
:1005B00080F30988AFF30080FFF7BAFFFFF7D6FF9B
:1005C000A5EDF5FE01488047014800470102000003
:1005D000A90500000090D003FEE7FEE7FEE7FEE776
:1005E000FEE7FEE7FEE7FEE7FEE7FEE7FEE7FEE7E3
:1005F000FEE7FEE7FEE7FEE7FEE7FEE7FEE7FEE7D3
:10060000FEE7FEE7FEE7FEE7FEE7FEE7FEE7FEE7C2
:10061000FEE7FEE7FEE7FEE7FEE7FEE7FEE7FEE7B2
:0C062000FEE7FEE7FEE7FEE7FEE7FEE770
:04000005000005A949
:00000001FF
