:020000040002F8
:10600000B04C00204DB5020003820200079202004E
:10601000E3940200D3960200E39A0200000000001D
:106020000000000000000000000000002F9C0200A3
:10603000BF9C02000000000075B102005BB20200CC
:1060400017AC020067B20200D16F0200ADB60200C9
:10605000AFB60200B1B60200D3730200B3B60200BD
:10606000B5B60200B7B60200B9B60200BBB6020070
:10607000BDB60200BFB60200C1B60200C3B6020040
:10608000C5B60200539A0200C7B60200C9B60200A4
:10609000CBB60200CDB60200538D0200CFB602008F
:1060A000D1B60200D3B60200D5B60200D7B60200C0
:1060B000D9B60200DBB602000000000000000000BC
:1060C000DDB60200DFB60200E1B60200E3B6020070
:1060D000E5B60200E7B60200E9B6020000000000E3
:1060E00000000000000000000000000000000000B0
:1060F00000000000000000000000000000000000A0
:10610000000000000000000000000000000000008F
:10611000000000000000000000000000000000007F
:10612000000000000000000000000000000000006F
:10613000000000000000000000000000000000005F
:10614000000000000000000000000000000000004F
:10615000000000000000000000000000000000003F
:10616000000000000000000000000000000000002F
:10617000000000000000000000000000000000001F
:10618000000000000000000000000000000000000F
:1061900000000000000000000000000000000000FF
:1061A00000000000000000000000000000000000EF
:1061B00000000000000000000000000000000000DF
:1061C00000000000000000000000000000000000CF
:1061D00000000000000000000000000000000000BF
:1061E00000000000000000000000000000000000AF
:1061F000000000000000000000000000000000009F
:1062000080B5DFF85025DFF850050021117000F04F
:10621000C1FA20B90FF2705000F068FB002002BDF7
:10622000DFF83805DFF83815401AC008704738B570
:10623000044689B1FFF7F4FF2568DFF8282500211F
:1062400000E0491C814205D232F82130AB42F8D13E
:10625000216001E0052032BD002032BD01B5684655
:10626000FFF7E5FF28B9DFF80005009950F8310085
:1062700002BD002002BD0000491EDFF8EC24032906
:1062800002EBC0000BD8DFE801F002040608022090
:1062900070470420704700797047407970470020AC
:1062A0007047024600201368C3F3800292B103F0E6
:1062B0000300012807D0022801BF086800EB9350B3
:1062C000801C086005E00A68C3F383108218921CE2
:1062D0000A600120704780B50021DFF8900400F0CB
:1062E0000FFB80F3100002BD2DE9F84785B088460A
:1062F00000218DF800101546DFF8587404466846F2
:1063000000F04EFB7868C8F80000A61C00F071F899
:1063100007F2144807F21C493BE0029982460198B3
:10632000890DC91C00EB9100019026E0019907F14D
:106330000C0001F0FF0100EB810001A9FFF7B1FFA4
:106340000028F3D1019A07F10C0100F0BFF901997F
:10635000491C01280191F5D90299BDF80E0001F000
:106360000301012902D00229D7D006E08246029813
:106370000199C0F3831041180191404600F00AFBD7
:1063800008B10198B8605146484600F0E9FA00F0BB
:1063900030F8B14215D20121484600F0E1FA07F584
:1063A000836000F0F5FA404600F0F2FAB868019018
:1063B00007F10C0100F0FF004FF0000A01EB800034
:1063C000BBE72DB1A40104F4707444F0050402E0AD
:1063D000A40544F0060407F10C00397940F8214087
:1063E000786836189DF800007E6000F0F4FA01200D
:1063F00063E17968B868C1F58071411870472DE98B
:10640000FC470446884615469A460122694650468E
:10641000FFF76AFFDFF83C6348B30098801C002157
:1064200006F10C0207E055F8217000F0FF0342F876
:106430002370401C491C5145F5D3009DFFF74BFFCD
:1064400006F10C0900F030F8E40049F8270024F4C4
:10645000707444EA8A14C4F3090406F10C0044EA97
:10646000882405F0FF0544F0010440F82540307809
:1064700018B100F029F80028FBD1C046C046BDE89D
:10648000F38700230022BAE780B50092012300F0D1
:1064900009F801BDE0B5009201936A460223FFF7B7
:1064A000AEFF07BD6A46AAE76F1C000407F0FF07AE
:1064B00040EA14407047A74881684068814201D192
:1064C00001207047002070472DE9F84785B0FFF79D
:1064D000F2FFF8B99F4E06F58267B860BFF34F8FA1
:1064E00006F10C01B068009000F0FF0001EB8000A5
:1064F00005E006F10C0001F0FF0100EB81006946A8
:10650000FFF7CFFE40B1B86830B97068009981429A
:10651000EFD3B0600020D0E00020009A06F10C011B
:1065200000F0D4F80099491C01280091F5D902998E
:10653000894801F00301022944D1029DAD0DA8460E
:10654000502DA8BF5025029965F39F51029105F186
:10655000080100F021F95FEA000950D000F064F969
:1065600000F0AEF8009901F0FF01C1F580708000E5
:1065700006F10C02A84202EB810117D228B9AA4603
:1065800006F10C010024002503E0824606F10C040C
:106590002D1A5FFA8AFA08235246484600F09AF903
:1065A0004CB10AF10803EAB2214601E008232A4669
:1065B000484600F08FF9009808F1030100EB9100C4
:1065C00000903BE0029901F0030101295CD102999E
:1065D000C1F383110529DABF029901F470714FF4F8
:1065E000C071029A22F47072114302910299C1F3B0
:1065F0008311891C890000F0CFF85FEA000943D0BD
:1066000000F012F900F05CF84FF00808002410E0E8
:106610000098411C009106F10C0500F0FF0005EB0D
:10662000800143460422484600F054F908F104086A
:10663000641C0298C0F383108442E9D33C68B868B4
:1066400070B1484600F0F4F832E0E0684179012981
:1066500004D122681368494620469847E0680468D8
:10666000002CF2D1484600F0E3F800208DF8040039
:1066700001A800F095F9B86808B90098B0609DF8D5
:10668000040000F0A8F913E03C6805E021688A687E
:1066900020469047E0680468002CF7D13448304A1F
:1066A00034A1801AC008000440F00200FFF7E9FEA0
:1066B000FFF701FF401E8041C00F06B0BDE8F08724
:1066C0000023082202A9484600F004B902F0FF02A4
:1066D00051F8221002AA42F82010401C704730B531
:1066E000024600201B4BD3F8101400E0096849B1A2
:1066F000C9680C798442F9D1401C0A28F3DB4FF0B9
:10670000FF3030BD10F1010F10D0D1680871D4688E
:10671000D3F8101419B9C3F81024216030BDCD6826
:1067200029682160D3F81034D9680A6030BD10B5EB
:106730000848D0F810440121017008E0E168012206
:106740004A712046226851688847E0680468002C36
:10675000F4D110BDBC240020C8B40200D4AE0200A5
:106760005CAE0200000000005CAE0200D8280020F1
:106770007CAE02004261636B656E647320666C756B
:1067800073686564000000009C2900207F00000001
:10679000242C002000F038B92DE9F04105460F46C1
:1067A0002E8A00F048F9361F040002D10020BDE80F
:1067B000F081F71900200121FF1C20716171A046B2
:1067C000B7FBF6F7E680FFB27F1EC8F80050002640
:1067D00007E06179491C6171C8F8000005608046D6
:1067E000761CBE4208D2284600F025F90028F0D1D8
:1067F000204600F003F8D9E72046D8E7F8B501466F
:106800000D464C79601E002200E0521C2D68824229
:10681000FBD3002605E00F68284600F02FF9394623
:10682000761CA642F7D3F1BD0121001D00F098B8F7
:106830001CB504460121201D00F09EF800909DF833
:10684000000018B92046BDE81640D7E713BD2DE972
:10685000F0471446B0F8068042792568464656430C
:1068600003F1040C361FBCFBF8F25F1908FB12CCD5
:10687000BE4234BFF31A2B462360002A01E00068B1
:10688000521EFCD1A8EB0C024FF000099A4693422D
:1068900088BF9246089F0E4605461C4616E005EB4B
:1068A0000C00001D06EB0903390052460EBF1946C5
:1068B0000146184600F0FAF82D68A4EB0A04D1440A
:1068C0004FF0000CA246444588BFC246002CE6D1DA
:1068D000BDE8F0871CB50192002402E01CB50192CE
:1068E0000124009401AAFFF7B2FF13BD80680021C4
:1068F0000022816002614161C260416002607047B4
:1069000010B5024652E8000F0C4642E8004393F0EF
:10691000000FF7D110BD000010B5024652E8004F3D
:1069200044EA010042E8000393F0000FF6D110BDE5
:1069300010B5024652E8000F00EA010442E80043A5
:1069400093F0000FF6D110BD10B5024652E8004F8B
:1069500004EA010042E8000393F0000FF6D110BDF5
:1069600010B5024652E8004F04EB010042E8000374
:1069700093F0000FF6D110BD10B5024652E8004F5B
:10698000A4EB010042E8000393F0000FF6D110BD24
:106990000121C1E70021CBE7EFF3108072B6704709
:1069A00038B50446FFF7F8FF134A916871B901231F
:1069B00093601249124B1D680D40156019605968AB
:1069C00051604FF0FF325A60002100E00121217038
:1069D00000B962B631BD10B5074CA16859B150B9C4
:1069E000FFF7DAFF074922680A6063684B600021FD
:1069F000A16000B962B610BD642C0020FC06FFBD8A
:106A000080E100E000E100E010B508B90E2010BD03
:106A10000368426881681A60891A03E013685C1C85
:106A2000146019700B46591EDBB20268002BF5D1B9
:106A30000020107110BD38B5044600258DF80050B7
:106A40006846FFF7ADFF21686268086882420FD28E
:106A5000421E0A601578208AE36845431D44A368F6
:106A600020689A1A0379D2B29A4238BF1A460A713C
:106A70009DF80000FFF7AFFF284632BD38B50C4641
:106A8000002105468DF800106846FFF789FF286849
:106A900001684A1C0260E8682A8A241AB4FBF2F2F0
:106AA0000A709DF80000FFF796FF31BD4AB1000063
:106AB00011F8013B521E00F8013B1CBF11F8013BCD
:106AC000F8E7704781B0002242504058009000998A
:106AD00001B07047405800B10120C0B27047D0F8F3
:106AE0000403084018BF0120C0B2704700F20C50E8
:106AF00082600160704700F5A160016082607047AC
:106B0000D0F81805C0B2704730B5039D049C41EA27
:106B1000420141EA83014FF0A04241EA052102EB24
:106B2000800041EA0441C0F8001730BDE0B500F034
:106B30000FF8012105E0E0B50B460021002201918C
:106B40000092FFF7E1FF07BDE0B500F001F8F8E7BC
:106B50000021019100910023012270470121DFF8FB
:106B60003C2401FA00F01060704700002DE9F0416C
:106B700004460D4690462179DFF824042C2212FBAE
:106B800001F2861806F12907787808B108207DE01F
:106B90000FF2384050F82110206800F01CFA08B1BC
:106BA000112073E0286810F1010F04D0FFF7D6FF21
:106BB0002868FFF7BBFF686810F1010F1CBF0021B8
:106BC000FFF7B9FF2068A96900F2245211606B7DBC
:106BD000297D0B4393646A682968FFF787FF287D46
:106BE000012814D1A86810F1010F1CBF0021FFF784
:106BF000A2FFE86810F1010F04D0FFF7AFFFE868CB
:106C0000FFF794FFAA68E9682068FFF774FFC6F8E9
:106C1000048029697068316060B32D7F20684FF46B
:106C20008E71FFF74FFF20684FF4A271FFF74AFF04
:106C30002068DFF87013C0F8041300030016690120
:106C4000002803D4DFF86023115406E0DFF85C333A
:106C500000F00F00184400F8041C2168090309160D
:106C600008D4012201F01F00DFF8443382404909B3
:106C700043F8212004202168C1F800050022B261F8
:106C8000F2613A707261012078700020BDE8F081F5
:106C90002DE9F84304462C202279DFF804134243FF
:106CA0008D1821680023C1F80035686898B1DFF8B5
:106CB0000423C1F80823090309160CD4012201F0AA
:106CC0001F00DFF8F4328240490943F82120BFF366
:106CD0004F8FBFF36F8F4FF0FF32206800F5A16137
:106CE0004E68CF68D1F80080D1F808901146FFF7C0
:106CF000FDFE4FF0FF3220681146FFF7FCFE16F153
:106D0000010F1CBF3046FFF71FFF17F1010F1CBF1B
:106D10003846FFF719FF19F1010F1CBF4846FFF76E
:106D200013FF18F1010F1CBF4046FFF70DFF20684D
:106D300000F06DF9002085F82A006860BDE8F18355
:106D400038B50D4604464FF48E71FFF7BBFEA868B8
:106D5000296A405C2A6A521C2A62C4F81C0531BDAB
:106D60002DE9F041054617462A790E462C20DFF81A
:106D7000301242438C18284600F03EF808B111202A
:106D800038E06761A6602062002184F828104FF483
:106D90008E712868FFF796FE286801218160002621
:106DA0002146FFF7CDFF606818BB2F68D4F8148028
:106DB00003E021463846FFF7C3FF206A40450CD266
:106DC0004FF48E713846FFF785FE0028F1D194F814
:106DD00028000028F4D00F2609E028684FF48E71AF
:106DE000FFF778FE0028F8D029680120C86000204D
:106DF00060613046BDE8F081027969492C20424348
:106E000088184169080018BF0120C0B2704770B5EA
:106E10000D460446A86900284FF48471204605D128
:106E2000FFF750FE2046BDE8704069E6FFF74AFED6
:106E30006E6A2046FFF764FEE9688855686A401C60
:106E4000686270BD1FB50346012402918DF80040B1
:106E50000192684619685A6890471FBDF8B5024606
:106E600000238DF8003002919068019053616846CC
:106E700011685268904705B000BD2DE9FF414F4DA4
:106E80004FF400712846464C4D4FFFF728FE04F1A1
:106E900028064FF4017810B34FF4927100F094F883
:106EA000E8B14FF492712846FFF70CFEC7F8008056
:106EB000707808B90121696002208DF8000041480E
:106EC0000168016003910021A06962680290A161DC
:106ED000E161E06821680190684690472AE004215A
:106EE0002846FFF7FCFD28B34FF4847100F06CF8DE
:106EF00000B321462846FFF78AFFA069616A8842ED
:106F000018D1E06948B1E268616AA0610023206994
:106F1000E060E3610020606209E0707808B9012157
:106F20006960C7F800800020E268A061616A2046BD
:106F3000FFF788FF4FF48E7100F046F8A8B1606942
:106F4000216A814206D2307820B921462846FFF7CF
:106F5000F7FE0AE04FF48E712846FFF7B3FD606933
:106F600018B161692046FFF779FF4FF4A27100F074
:106F70002BF888B14FF4A2712846FFF7A3FD707873
:106F800008B101212960A06930B10021A16120462A
:106F9000E268616AFFF756FFBDE8FF81080500500F
:106FA000782B00208000020000E400E018ED00E0F3
:106FB00000E100E08402020080E100E000200040E7
:106FC0000823004080240040284683E57B6E0200B1
:106FD00013480168084738B50D461249884214D154
:106FE00000248DF800406846FFF7DAFC0C49087968
:106FF000002811BF01240D60012008719DF80000D8
:10700000FFF7E9FC0CB1112032BD002032BD05496B
:10701000884203D1024800220260027170470000DA
:10702000A02C00200020004000F1804000F5C0406E
:107030000068012818BF002070471CB5044600F006
:1070400009F800210160204600F004F80068009073
:10705000009913BDFCE04FF0A040704730B5039D90
:10706000049C41EA420141EA83014FF0A04241EA17
:10707000052102EB800041EA0441C0F8001730BD51
:1070800011B581B00C4601A8FFF7E5FF00F5E060FF
:10709000019950F8212022F4403240F82120019A31
:1070A00050F8221041EA044140F8221013BD01B506
:1070B0006846FFF7D0FFD0F810050099C84000F0EF
:1070C000010002BD78B50FF24844256800950346DB
:1070D00008E05DF82350D5F8206542F8046BC5F848
:1070E00020655B1C0D18AB42F3D371BD0246002036
:1070F000510908BF4FF0FF3002F01F02D04000F0EE
:10710000010070470246012002F00703D2089840B0
:10711000895C08407047DFF8D013084490F93020AC
:10712000082A8041C00F7047DFF8BC13084490F96B
:107130003020082A01DB0120704700207047DFF86B
:10714000A813084490F93020D043C00F704710B501
:1071500000F005F81843FFE781F8540010BDDFF890
:10716000882302EBD001012491F8543000F007008D
:1071700004FA00F07047F0B503464FF0FF301400FA
:1071800007BF08240C2500240825DFF85C6300E015
:10719000641CAC420ED256F8247017F1010FF7D1DF
:1071A000F01880F8304046F8241012B9301980F8F1
:1071B0004830204640B2F0BDDFF82C134FF0FF32CC
:1071C00041F820200828A4BF081880F848207047FC
:1071D00038B5DFF8144394F8580008B1082032BDE0
:1071E0000025E8B2FFF782FF28B1E9B221444FF051
:1071F000FF3081F830006D1CEAB2202AF1DB002557
:10720000E8B2FFF7D9FF6D1CE8B20C28F8DB04F1F7
:10721000540000210160C021DFF8D022117040200D
:10722000DFF8CC3218604FF4BE70FFF706FFDFF8CE
:10723000C4124FF000400860012284F8582000205A
:1072400032BDDFF8A40290F8580000B10120704769
:1072500000F1804000F5C0407047FEB505460F467E
:107260001646FFF76CFF002408B1082449E0BA78FD
:10727000520802F0010231462846FFF77CFF06461D
:1072800016F1010F3CD0B878410717D4C0070AD5D2
:107290004FF0A04101EB8500D0F8001721F002016A
:1072A000C0F8001707E000210194009100227B78CC
:1072B0002846FFF7D3FE2846FFF749FFB87839780C
:1072C000820713D58C4A8D4852F82630034042F885
:1072D00026302D0252F8263005F4F85509041D43D6
:1072E00001F440310D4342F826500AE07E488219ED
:1072F000304492F8483043EA811380F8483000E087
:1073000004242046FEBDF8B50E460546764CFFF730
:107310000BFF6719B0B197F93000204490F948008D
:107320000006800F032804D12846FFF7C0FE10B1E5
:1073300003E0012801D1022100E003212846BDE835
:10734000F4409DE62846FFF7E6FED8B197F93050A5
:10735000694850F8251041F0010140F82510A800B7
:1073600000F5807000B2FFF768FE002E1EBF97F98F
:10737000301054F82100002804D001215D4801FAA2
:1073800005F50560F1BD10B50446FFF7CDFE20B14F
:107390002046BDE81040002172E62046FFF7BBFE04
:1073A00078B151485449204490F9300051F82020D8
:1073B0005208520041F820200121514A01FA00F000
:1073C000106010BD80B5FFF772FE00B10120C0B2A1
:1073D00002BD2DE9FC41002500954FF48076012780
:1073E0004FF0080830B2FFF71FFE00281EBF4148CB
:1073F0000068384203D030B2FFF71FFE3D437F00E4
:10740000361DB8F10108EDD14FF4BE70FFF70CFE48
:1074100038B14FF4BE70FFF710FE00F075F845F07C
:1074200000452806304F17D001260024DFF8C88019
:107430002E420DD058F8240058F8241057F8242074
:10744000130005D0090C01F00301C0F3042090479C
:107450007600641C082CEBD3002D43D5002438198A
:1074600090F9505015F1010F34D0E8B220F0C00867
:1074700069464046FFF746FE60B34FF0A04000EB80
:1074800088012D06D1F80067360CAD0F06F0030613
:10749000022E0CBF032102214046FFF7F1FD01201F
:1074A000184900FA08F0086007EB080191F930204C
:1074B00057F8222010000DD0032D08D0022E02D143
:1074C000012D07D103E0032E08BF022D02D129466A
:1074D00040469047641C042CC1D300F015F8009876
:1074E0000028BBD1BDE8F381982A002006E400E023
:1074F00000E100E00463004010650040FFE0FCFF95
:1075000008630040200500506A4601210020D9E5AB
:107510000000005081B00022425040580090009975
:1075200001B07047405800B10120C0B2704700F26E
:107530000C5001E000F5A16001608260704730B539
:10754000039D049C41EA420141EA83014FF0A042BD
:1075500041EA052102EB800041EA0441C0F800172E
:1075600030BDE0B500F00FF8012105E0E0B50B46B5
:107570000021002201910092FFF7E1FF07BDE0B575
:1075800000F001F8F8E700210191009100230122A9
:1075900070470121DFF8142401FA00F010607047F1
:1075A000F8B504460D46217917462423DFF8002458
:1075B00013FB01F3D61896F8200008B10820F2BD9D
:1075C0000FF21C4050F821102068FFF704FD08B1AD
:1075D0001120F2BD286810F1010F04D0FFF7D9FF88
:1075E0002868FFF7BEFF686810F1010F1CBF00217B
:1075F000FFF7BCFF2068A96900F2245211606B7D7F
:10760000297D0B4393646A682968FFF790FF287D02
:10761000012814D1A86810F1010F1CBF0021FFF749
:10762000A5FFE86810F1010F04D0FFF7B2FFE8688A
:10763000FFF797FFAA68E9682068FFF77BFF77608C
:10764000706829693160002838D02D7F20684FF498
:107650008871FFF75FFF20684FF49071FFF75AFFC2
:1076600020684FF49271FFF755FF20684FF4A27124
:10767000FFF750FF00F021F92068DFF83813C0F859
:107680000413000300166901002803D4DFF828233F
:10769000115406E0DFF8243300F00F00184400F81E
:1076A000041C21680903091608D4012201F01F00F7
:1076B000DFF80C338240490943F821200820216873
:1076C000C1F800050022B261F26100217161012060
:1076D00086F820000020F2BD2DE9F047064624215F
:1076E0003279DFF8CC024A438518316868680C4665
:1076F00098B1DFF8C022C1F80823090309160CD499
:10770000012201F01F00DFF8BC328240490943F832
:107710002120BFF34F8FBFF36F8F271DD4F80002D6
:1077200020F02000C4F80002AA6932B14FF4A2711F
:107730002046FFF7EFFE01223A604FF4AC7120467D
:10774000FFF7E8FE0120B8604FF4AC712046FFF768
:10775000E9FE0028F8D0A86930B14FF4A2712046A4
:10776000FFF7E0FE0028EFD00020C4F800054FF03E
:10777000FF32306800F5A1614F68D1F80C80D1F874
:107780000090D1F808A01146FFF7D1FE4FF0FF326C
:1077900030681146FFF7CEFE17F1010F1CBF3846C7
:1077A000FFF7EDFE18F1010F1CBF4046FFF7E7FEA3
:1077B0001AF1010F1CBF5046FFF7E1FE19F1010F4E
:1077C0001CBF4846FFF7DBFE2046FFF720FC0020E9
:1077D00085F820006860BDE8F087F8B505461746D3
:1077E0002A790C462420724942438E1804F06041E5
:1077F000B1F1005F28D1284600F039F830BB77613D
:10780000B4604FF490712868FFF784FE28684FF445
:10781000AC71FFF77FFE70692968B36801F24452CA
:1078200000271360506001228A607068C8B9286818
:107830004FF49071FFF776FE044600F014F804430D
:10784000F5D028B10F270AE01020F2BD1120F2BDBB
:1078500029680120C86000F006F80028FBD000204D
:1078600070613846F2BD28684FF4AC715AE602796F
:107870004F492420424388184169080018BF01205D
:10788000C0B270471FB50346012402918DF8004035
:107890000192684619685A6890471FBDF8B50246BC
:1078A00000238DF800300291906801905361684682
:1078B00011685268904705B000BD20684FF4AC7164
:1078C00028E67FB5404E4FF4927100F085F8384CB1
:1078D0003E4DB0B14FF4927100F080F802208DF867
:1078E00000003B480168016003910021286862683C
:1078F0000290A161E161E0682168019068469047CB
:107900001FE04FF4887100F067F8D0B14FF4887130
:1079100000F064F82968A069814212D1E268E06948
:1079200058B12C48036823F020030360E069236901
:10793000A061E3600020E06100E0A0612046FFF765
:10794000A1FF4FF4A27100F047F868B14FF4A271A3
:1079500000F044F8A06938B10021A161E16120463E
:107960002968E268FFF78EFF4FF4907100F034F859
:1079700058B14FF4907100F031F80121F160606965
:1079800018B129692046FFF789FF4FF4AC7100F068
:1079900023F848B14FF4AC7100F020F8606918B1D9
:1079A00029692046FFF77AFF7FBD000008050050D7
:1079B000A42B00201003420000E400E018ED00E0DA
:1079C00000E100E080E100E0002000403C250040B4
:1079D00080240040002200403046A3E5304699E56F
:1079E000C37802000870000A4870022070472DE931
:1079F000FE4F0C9DDDF834902E881C464FF0000A97
:107A000007468E469046002306E028889DF8001021
:107A1000411829800AF1010A3888824529DA7968F3
:107A200051F82A0001900022694601A864DF50BB8A
:107A30009DF800004045EDD128889DF8002083F096
:107A4000010C12184FEA4C0B52FA8BFBD9451CDB88
:107A500043B9401C2880012380B204F800E0288844
:107A6000401C28802888221801A864DF0028CCD078
:107A700009E03BB12888801B401E81B2B1F5807FB0
:107A800003DAA0550020BDE8FE8F0C20FBE72DE9AE
:107A9000FC41089F099C01941646054698460097AC
:107AA0000222FFF7A4FF38B9019400974346102241
:107AB00031462846FFF79BFFBDE8F6812DE9FC4BD8
:107AC00016460446B6F80090002704F12C083780CB
:107AD0000D4698F8010030B3B9F1090F4CD3684650
:107AE0006DDF002828D13188082068541B23308896
:107AF000401C3080062280B20DF101012B543088E9
:107B0000401C308080B22844FEF7D0FF3188891DA8
:107B100031809DF80000400818BF012089B26854E8
:107B20003188491C3180A078A0B13188091D894570
:107B300022D3684679DF002840F0FD803188032099
:107B40006854192200F045F9BDF80000FFF74AFF1C
:107B500000F02DF9E07848B13188CA1C914540B257
:107B60000AD302226A54012300F025F9606850B15B
:107B70003188C057CA1C9145C0F00A8102226A545C
:107B80000A2300F018F9208948B100F005F906220F
:107B9000022104F10800FFF77AFF070032D1208AA2
:107BA00048B100F0F9F80722032104F11000FFF7B3
:107BB0006EFF070026D1208B48B100F0EDF81522AA
:107BC000142104F11800FFF762FF07001AD1206AA0
:107BD000002830D007463088811D8945CCD33988AC
:107BE00006290EDB40F6814C61454FF6FF7301DB41
:107BF000994206D17A88062A03DB624503DB9A4262
:107C000007D00727C5E0994218BF9A4201D08A429F
:107C1000F7D305212954122200F0DBF83888FFF74A
:107C2000E1FE00F0C4F880B229187888FFF7DAFE88
:107C300000F0BDF80027606A30B30746B888318885
:107C4000801C4218921C914554D3FF2852D2401CEC
:107C50006854FF2100F0A5F83088401C308080B2C5
:107C600029183888FFF7BEFE00F0A1F8BA8852B193
:107C7000B9680029C5D080B22844FEF717FF3188C3
:107C8000B88841183180002798F80000002833D0C8
:107C9000A06A0028B5D000271CE03188401C685439
:107CA000162200F096F8BBF80000FFF79BFE00F0EC
:107CB0007EF8BBF8042062B1DBF808100029A0D0E0
:107CC00080B22844FEF7F2FE3088BBF80410081892
:107CD00030807F1CF8B298F8001088420BD2A06A5E
:107CE000FAB20C214A4300EB020BBBF80400801CE3
:107CF000FF28D2D34CE000272078002849D0012863
:107D000004BF61780029DAD031888B1C99453FD3B4
:107D1000012804D160780818801C814538D3A9EB6C
:107D20000100821E92B2ADF80020A81C338869467B
:107D300018447DDF08B107462BE02078022804D0E4
:107D40006178BDF80030994205D3BDF800108A4231
:107D5000A8BF09210ADA0821012805D163789A42CF
:107D6000A8BFADF8003001DAADF80020BDF8000082
:107D7000FF280DD23288401CA854002700F011F8CB
:107D80003188491C3180BDF800004118318000E085
:107D90000C273846BDE8F68BCDF8049000962B46AC
:107DA00070473088401C308080B229547047318839
:107DB0000818308070473188491C318089B26B5473
:107DC0003188491C318089B268543088401C308029
:107DD00070473088401C308080B22A543088401C64
:107DE000308080B22918704700F0FCB910B5DFF878
:107DF0003803DFF83843041BE408240444F0030488
:107E00002AB1022000F024FA0FF2543104E00220DB
:107E100000F022FA0FF25C312046BDE81040FEF778
:107E200030BB007838B9C24A508B3B2176DF00283E
:107E300018BF00F0D7B9704700F0D4B980B5BC4A7C
:107E4000107E012173DF08B100F0CCF9BDE80240DB
:107E5000002000F0FDB9000038B5044600F077F8C6
:107E6000B34D2388821AD2081204688B102B42F07B
:107E700003020CD0112B21D0132B31D0212B34D065
:107E80003B2B3BD0522B34D0562B37D031BD00BFCB
:107E9000BDA11046FEF7F5FA012000F0D9F9002047
:107EA00000F0DAF9A188698305F1400000F022FAB8
:107EB00008B100F097F900F096FB22E0B5A110465A
:107EC000FEF7DFFA012000F0C7F94FF6FF70688374
:107ED00000F099FB08B100F085F9BDE83140ADE74D
:107EE0000023002285217FDF0BE0A088BCA18FDF6B
:107EF00007E0002300220021B1DF02E0A088132167
:107F000076DF18B1BDE8324000F06CB931BD000039
:107F100010B50D280C4615D100F019F8A1A100F0FC
:107F200011F98349488B224600F0FFFB00281CBF53
:107F300043F20201884209D008281CBF43F20141E4
:107F4000884203D0BDE8104000F04CB910BD76481F
:107F5000764A704718B5A5B04FF480410020FEF76F
:107F60004FF908B100F03EF900F002FC012000F0EA
:107F700083F900F05DFD08B100F034F96C4C40F27B
:107F80003332012104F14C0000F0F4FA08B100F0A2
:107F900029F900F0E3FD08B100F024F900F084FEB7
:107FA00008B100F01FF9002000906946012000F0A0
:107FB000E5FE08B100F016F9684600F05BFF08B175
:107FC00000F010F911208DF800000B2261A1684625
:107FD0007CDF08B100F006F901A90020C1E900002A
:107FE000A021ADF80610ADF8080050224FF4C8717A
:107FF000ADF80420ADF80A1001A87ADF08B100F04E
:10800000F1F8002104F12C0001F000F808B100F0B3
:10801000E9F800BF71A1474B0A680092019301A9DA
:1080200004F1400000F052F908B100F0DBF84248DA
:1080300000906946204600F01FFB08B100F0D2F81E
:1080400065A10A68A37C00928DF802303C2116A835
:1080500001F0D6F8022001218DF858008DF85A1051
:1080600006228DF85B203C2107A801F0C9F8012108
:10807000ADF82C10CDF830D004F12002E16916A83B
:10808000FFF71CFD08B100F0ADF8616A04F12802A9
:1080900007A8FFF713FD08B100F0A4F8182101A804
:1080A00001F0AEF80022ADF8102002928DF81820F1
:1080B000012140228DF819108DF80410039204F16B
:1080C0001C0101AA04F1180072DF08B100F08AF85F
:1080D0001C21684601F094F8002100914FF4A02281
:1080E0004FF4A03101920291032200218DF80C205F
:1080F000ADF80E108DF8101068461049104A059121
:10810000069201F0E2F808B100F06CF8FFF71FFFEB
:108110002BA100F017F8FFF791FEFEF7D5F9002824
:10812000FBD100F02AFDF8E77CAE02005CAE020055
:10813000C4230020E97D0200ED7D0200237E0200C1
:10814000397E0200801AC008000440F00300FEF7E8
:1081500098B9000046696E655F426C696E6B790084
:108160005265636569766564204C4544204F4E2115
:10817000000000005265636569766564204C4544E3
:10818000204F464621000000436F6E6E65637465A4
:1081900064000000446973636F6E6E6563746564A8
:1081A0000000000053656E6420627574746F6E2069
:1081B0007374617465206368616E67652E000000EA
:1081C000426C696E6B79206578616D706C652073A7
:1081D0007461727465642E002315000000000000B5
:1081E000000043001FB5694600220023002481E8F7
:1081F0001C0002906A46002144F2010001F02AF9B5
:108200001FBDFEE74FF0A040704730B5039D049CB2
:1082100041EA420141EA83014FF0A04241EA0521CF
:1082200002EB800041EA0441C0F8001730BD1CB5E4
:10823000012441B900906846FFF7E4FF00998C40A3
:10824000C0F80C4513BD0B4A04FA00F0106013BDD2
:108250001CA2105C0021EAE71AA2105C0121E6E7EB
:1082600010B500242046FFF7F7FF641C042CF9D357
:1082700010BD000008050050FEB50446E00710D50B
:108280005FF000050FA60027019700970023705D9F
:1082900001220121FFF7B9FF6D1C042DF4D3FFF774
:1082A000DFFFA0070DD5002407A5002001900021C5
:1082B00000910323285D0022FFF7A7FF641C042C14
:1082C000F3D3F7BD111213140D0E0F10002818BFB1
:1082D000002901D10E2070470278DE2A01D1082042
:1082E000704709684160DE2202704FF6FF734380D9
:1082F0000020704708B90E2070470278DE2A01D0AE
:10830000082070474180002070470246107A50B123
:108310005088002166DF10B1112802D101201072AF
:1083200070475168084770477FB505460C0018BF75
:10833000002D4AD02078DE2847D1A888618888425D
:1083400004BF2046FFF7E1FF2888012804D0112848
:1083500034D051280DD07FBD297A012902BFA888C9
:108360006188884231D1012020722046FFF7CDFF7D
:108370007FBDA8886188884204BFA879022824D1DB
:10838000A87B04281CBF062805281ED1684610219A
:1083900000F036FF02214FF4C0768DF80010ADF8E2
:1083A0000460A87B052804BF0021ADF80410A8884C
:1083B0006946B0DF48B1616888477FBDA888618899
:1083C000884204BF4FF6FF7060807FBD10B5C207C2
:1083D00052BFF0220F2209019A4B03EB500004799F
:1083E00022401143017110BD30B5964A136A002135
:1083F00000E0491C1478A14206DA13F83150A84273
:10840000F7D103EBC10030BD002030BD38B50446C4
:108410000D46FFF7E9FF00281CBF4268002A04D080
:1084200029462046BDE83840104731BD2DE9F843C4
:108430000C46DFF8109209EB500180460D795FEA97
:10844000C8704CBF2D0905F00F05012000214246E0
:1084500001F036F8042D06460F4643D8DFE805F054
:10846000031318232600002C3CD0012100F03CF817
:1084700000228DF800206846FEF792FAD9E906013D
:108480003043394328E0002C0CBF002102210FE0CB
:108490003CB1032100F028F801214046FFF7B6FF68
:1084A00020E0012104E0ECB9042101E01CB103212A
:1084B00000F01AF816E0002100F016F800214046FE
:1084C000FFF7A4FF00208DF800006846FEF768FA69
:1084D000D9E90601B043B943C9E906019DF8000096
:1084E000FEF779FABDE8F18340466FE75548416AE7
:1084F00000224908283000F0D2BA70B50024514D4E
:1085000012E0002108E0296A01EBC4063078FEF78A
:1085100059FF71780129F4D14140491E89413078D1
:10852000C90FFFF783FF641C28788442EBDBD5E991
:108530000623002B08BF002A02D0BDE87040D5E713
:1085400070BD10B5C0B2FFF74FFF04462078FEF7AC
:1085500039FF6178012918BF002190EA010F02BF9D
:108560003848D0E90623002B03D112B9BDE81040EA
:10857000BCE710BDF8B516460A2E04460D4601D2DA
:108580000720F2BDFEF75DFE10B9FEF721FE48BBE5
:108590000022002300272B484662011D002681E8A7
:1085A000CC00C0E9062304620570274E29A728469F
:1085B000451EC0B280B138680090E8B204EBC0013B
:1085C0008A788DF80120324614F830006946FEF7AB
:1085D00044FE0028EBD0F2BDDFF870201CA0002183
:1085E00000F04CFAF2BD38B50024164D06E02A6AB8
:1085F00012F834000121FEF786FE641C28788442BC
:10860000F5D3002032BD38B500240E4D05E0296AAF
:1086100011F83400FEF7B7FE641C28788442F6D3C4
:1086200000218DF800106846FEF7BAF90020C5E970
:1086300006009DF80000FEF7CEF905F1280000F0D5
:108640005CFA32BDF022002043850200FB84020068
:1086500018230020030000000288502A02BFC288AD
:108660004B889A4204BF028A012A04D14B6913B194
:10867000827C80881847704730B58DB004460D68FD
:1086800037A1656109A81022FEF710FA04F1120162
:1086900009A862DF002834D1A17C8DF8021041F2D4
:1086A0002352ADF80020694622460120A8DF0028A9
:1086B00027D1202101A800F0A3FD41F2245000F0B1
:1086C0002BF840F0120000F01EF88DF8172004F18E
:1086D0000A02208801A900F029FF90B9202101A8F1
:1086E00000F08EFD41F2255000F016F840F00A002F
:1086F00000F009F88DF81620A21C208801A900F0CE
:1087000015FF0DB030BD8DF81100ADF80A20ADF8A1
:1087100008208DF815207047ADF8040001229DF85F
:108720001100A17C8DF80610704774B585B0012248
:10873000ADF80020002301AA00240025002682E8CD
:10874000780001238DF8063005AB4989ADF8041097
:108750000493CDF80CD001A9AEDF06B070BD0000C7
:1087600023D1BCEA5F782315DEEF1212000000006F
:1087700080B500F0D4FF04210348FDF7B0FF0349A2
:108780000120487101BD00BF5CB50200302400200B
:1087900038B5DFF8A84304F11C0001F049F9D4E929
:1087A00002230021D4E9044510185941A94206D8F2
:1087B00028BFA04203D2B0F17F4061F1FF3134BD48
:1087C000D1E90223D0E902018B4204D301D88242CD
:1087D00001D301207047002070477CB50446DFF8C4
:1087E0005C030178002601293BD1002C39D0FFF72A
:1087F000CFFFD4E90223994227D301D8904224D352
:1088000000F031F8206918B94FF0FF32C4E90222B4
:1088100000F06FF9A0696169884700F024F82069C9
:1088200070B1D4E902234FF0FF318B4208BF8A4276
:1088300006D0002110185941C4E90201012500E0C9
:10884000002500F056F935B90BE04FF0FF308342B8
:1088500008BF824205D021460FF2F02001F01CF93A
:108860000126304676BD8DF800606846FEF798B860
:10887000B6A001F022B92DE9F846814601F0CBF807
:10888000AE4F38B1D7E90201B0F17F4261F1FF3359
:10889000C7E902230021484601F0C5F800281CBFA3
:1088A000B869002804D0B869FFF797FF0020B861C5
:1088B0000121484601F0B7F818B1FFF769FFC7E991
:1088C000040100F095F80FF2842A4FF0FF3410E015
:1088D0004168D1E90223A34208BFA24202D0504618
:1088E00001F0DAF8694607F17C0001F06DF900F05B
:1088F0007FF8D0B101780029EAD002290CD0F1D25A
:108900004168B869814207BF0021B961504601F052
:10891000DBF8E7E7C0E90244FFF7AAFF0028F9D136
:1089200001203870DEE7FFF7A3FF5046406800687B
:10893000002856D0D0E902234FF0FF34A34208BFED
:10894000A242F0D0B869A0B1B869D0E90240834230
:108950004CD828BFA24249D2B8694FF0FF34D0E9C1
:108960000223A34208BFA24203D0B969504601F0D6
:1089700093F8FFF77DFF0546D5E90246FFF708FFAC
:10898000201A66EB010101220023994223DB01DC5E
:10899000904220D36A4EB04205D907F11C0001F085
:1089A00047F8321800E022464FF49603002107F101
:1089B0001C0000F0C1FF38B10D2802D12846FFF796
:1089C0000CFF0020B861B0E7B86910B9484600F064
:1089D00065FFBD610AE0002107F11C0001F01EF8EF
:1089E000ECE7B86910B9484600F05CFFBDE8F186D5
:1089F000694607F17C0001F0BBB87CB504460D4622
:108A00004E4E694606F17C0001F080F868B10470B2
:108A10004560694606F17C0001F09AF818B106F14C
:108A20001C0001F009F8002076BD042076BD00008E
:108A30001CB500BF48A0414C016800910823582292
:108A400004F1240104F17C0001F04CF8A8B93D4A7E
:108A5000694604F11C0000F0D9FE70B9012104F14F
:108A60001C0000F0D5FF0123374A012104F11C004E
:108A700000F01DFF01202070002016BD10B513006E
:108A800001D1072010BD00684FF0FF34C0E9024457
:108A90004261012918BF00210161002010BD2DE9AC
:108AA000FC410E46002105468DF8001090466846B0
:108AB000FDF776FF00F03BF808BF904208D1FFF7C2
:108AC00067FE002780197941C5E90201012400E011
:108AD000002400F00EF80CB9002008E02869C5F861
:108AE000188000B12E6129460020FFF786FFBDE8FF
:108AF000F6819DF80000FDF76EBF38B500210546F0
:108B00008DF800106846FDF74BFF00F010F807BF26
:108B100090420024C5E902220124FFF7EAFF0CB9C4
:108B2000002032BD29460120FFF767FF32BDD5E99D
:108B300002014FF0FF3291427047000038230020BD
:108B4000FFFFB40077880200FFFF7F0000000000F5
:108B5000A82C0020C18702000100060080B516483D
:108B60000021417000220261BFF35F8F10F1040009
:108B700013A101F04AF8002002BD80B500218DF854
:108B800000106846FDF70CFFF1EE100A20F09F0080
:108B9000E1EE100ABFF35F8F0849402008609DF89E
:108BA0000000FDF718FF00F0B3F808B141DF01BD88
:108BB00020BF40BF20BF01BD502C002084E200E058
:108BC00038B3020050B30200040000008068704710
:108BD0002028014604DA5048C84000F001007047E0
:108BE000402808DA0122A1F1200012FA00F018BF93
:108BF0000120C0B270470120704700001FB5044635
:108C000054A1684601F001F802E0684601F001F85D
:108C100000F024F848B100F021F8024620465168DF
:108C2000126890470028F0D1112004B010BD000058
:108C30001FB504464AA1684600F0E7FF09E000F0CE
:108C40000DF802462046516812689047684600F0C9
:108C5000E0FF00F003F80028F1D11FBD6846B5E73A
:108C600080B51620FFF7B4FF28B942F20100BDE835
:108C70000240FFF7B7BA294800784009082803D214
:108C8000EC21C140C80702D442F20200EFE72449B8
:108C9000886820B10A6842F480020A6001BD214957
:108CA0004FF48000086001BD38B51F4D287808B129
:108CB000082032BD0120A8700020FFF79FFF112877
:108CC00019D00020FFF7B4FF00F01CF8DFF85C10AB
:108CD00029A010DF0446401E8041C00F00F00DF8AF
:108CE0000CB1204632BD0020A8706870FFF7B8FFB5
:108CF0000120FFF79DFF002032BD28709DF8000085
:108D0000FDF769BE00208DF800006846FDF748BEFB
:108D10000548007870470000FC06FFBD16E400E03F
:108D2000642C002000E100E0AC2C002055940200EF
:108D3000E0B500BF0DA1684600F067FF05E0486898
:108D400009688847684600F064FF02990029F6D157
:108D500007BDEDE7ECB40200FCB40200080000001F
:108D6000FCB402000CB50200080000000CB50200C3
:108D70001CB5020008000000010000077FB50C00D0
:108D800008BF0E2068D06A496A4E21606A460021F9
:108D90000023002582E82A00012106238DF8000027
:108DA0008DF80210ADF8043069462268624D20202B
:108DB00069DF62494D1BED082D0445F0010528B11E
:108DC00000F036FF0246314600F048F800F049F85E
:108DD0000121ADF802208DF801106946226840207B
:108DE00069DF30B100F024FF024606F1480100F0CF
:108DF00035F800F036F80A218DF80010694622682F
:108E0000012069DF30B100F013FF024606F1940142
:108E100000F024F800F025F84FF4B06100916946A5
:108E20002268A12069DF30B100F002FF024606F19E
:108E3000E00100F013F800F014F88DF80010694616
:108E40002268A02069DF30B100F0F2FE024606F58C
:108E50009A7100F003F8002004B070BD2846FDF7B9
:108E600013BB684600210022002380E80E007047F3
:108E7000000000002DE9F8430646304937682E4DC2
:108E800060DF04464D1BED0830682D0487421AD27E
:108E900045F00208DFF8A89049464046FDF7F1FA90
:108EA00033683A4609F130014046FDF7F3FA2548A8
:108EB00002683068920202F10052121A09F164014C
:108EC0004046FDF7E1FA1CB91F490120087008E08F
:108ED000204600F0ADFE02461CA145F00100FDF762
:108EE000D3FA2046BDE8F28317490878002800D15C
:108EF000704700B591B03422ADF80020694604A84F
:108F000061DF20B919A101A800F07FFE0CE005285F
:108F100018BFFFF767F911B000BD5168126804A8C7
:108F2000904701A800F075FE039A002AF5D1E2E708
:108F3000F022002060A602005CAE020094AE0200A7
:108F400054AD02000C010010AF2C002073645F626E
:108F50006C655F656E61626C652829207265747549
:108F6000726E65642025732E0000000078B1020047
:108F700098B10200080000001721018000231B2285
:108F80004180037143718271C2717047F8B500BFAF
:108F900093A384B0D3E90067CDE90267ADF8081068
:108FA000ADF80A1005460621684600F029F96A4620
:108FB00002A9284690DF040025D000F039FE0346C0
:108FC0007C487D4E7D4F861BF608360446F0010630
:108FD0002A4639463046FDF75DFABDF80000BDF877
:108FE0000230002808BF002B05D0024607F14C01D3
:108FF0003046FDF74FFABDF8042022B107F18C018D
:109000003046FDF741FA204605B0F0BD80B508B9FD
:109010000E2002BD01611B231721018041800371D5
:10902000801DFFF7A9FF002002BD000002469088C6
:10903000002800D07047F0B58BB05E4B5E4C1088B6
:109040005F4D1C1BE4082404102844F001040E4664
:109050000BD011282ED0232800F08F8024286ED02A
:109060003A282BD0552847D091E0B71D3079B871F8
:10907000D17B012904D0022904D17088388001E015
:109080003188398039887A888A420ED20020A5DF5B
:1090900010B90120787108E0112802D1012038713F
:1090A00003E000F0C5FD00F08DF8B979F879884249
:1090B0006DD269E0B01DFFF75FFF68E0B71D508912
:1090C0003988884228BF08461728B8BF17207880FB
:1090D000306900281CBF7879002809D042A100F02F
:1090E00076F869467888ADF80400304632699047D2
:1090F0000020787138714AE0D088B71D1728B8BFB2
:1091000017203988884228BF0846788000203871A7
:10911000B5DF38B100F08CFD024605F13401204680
:10912000FDF7B2F97879002831D1306900282ED0C6
:109130002FA100F04CF87888ADF8040018E0111D5C
:1091400068462C22FDF7B2FCBDF80010BDF80420E3
:1091500006EBC1077A73D6F81000C0B126A0D0E99B
:109160000023CDE90023ADF80210787B8DF80400D0
:10917000694632693046904709E0B01D128981790D
:10918000D2B2914288BF11460020FFF7FFFEB07AAD
:1091900068B1F1880020A5DF18B90121B072F17221
:1091A00005E0112803D000F043FD00F00BF80BB0F0
:1091B000F0BD00006CAE02005CAE020070AC0200BC
:1091C000D4AE0200024629462046FDF75DB90020D4
:1091D000D1E90023CDE90023ADF80200704700007B
:1091E0000000000000000000770A000000000000FE
:1091F000770A0000000000007ADA0000000000009A
:10920000002200F043BDFEE78F490A89824202D165
:1092100001F10800704700207047F0B58688B41847
:10922000B24288BF3246C788B21AFD18BB4288BF17
:109230003B46FB1A4E880788BE4224BF4088B04296
:1092400009D38888904228BF844204D3C8889842B2
:1092500028BF854201D20020F0BD0120F0BD7B492E
:109260008969002918BF0847704738B5044680B29D
:10927000FFF7CAFF020027D0744D107A297B88427D
:109280000DD202F10A01A0B275DF20B111281BD066
:10929000FFF7E5FF31BD107A401C107231BD00218F
:1092A0001172287C38B13B21A0B276DF00281CBFA8
:1092B0000828FFF7D4FF696931B100228DF800203A
:1092C000ADF802406846884731BD70B5040001D151
:1092D0000E2070BD5D4E304621461C22FDF7E6FB98
:1092E000594D35602068A8B17ADFB8B921682846A1
:1092F0000822FDF7DBFB4FF6FF7005F12001288106
:10930000E96005F10C00524A0021FFF7B7FB28B1D4
:10931000032070BD28467BDF0028ECD070BD80B5EF
:1093200002460B464949587A58B9187A00280CBFAA
:10933000496889685868FFF7B2FB68B1FFF78FFF8B
:1093400001BD00201872496931B101238DF8003048
:10935000ADF802206846884701BD2DE9F84306466E
:109360003A4F3088102840F2F3184FF6FF7506D0B8
:10937000112829D0122850D0502832D061E0F07B3B
:10938000B6F8049001285CD12846FFF73DFF0400A1
:1093900008BF04203ED0A4F80090002020720822CC
:1093A00004F10A002849FDF781FB2B46424606F1ED
:1093B000100104F10A00FFF730FF6072F8890028FD
:1093C0003FD12146484639E0B088FFF71DFF040031
:1093D00037D06068FFF791FB08B1FFF740FF2580A9
:1093E0002FE0F088F989884204BF308A022828D10A
:1093F000B5882846FFF708FF040022D006F11200C6
:1094000000F076F810B12146284617E06068FFF7B3
:1094100074FBB0B1BDE8F24321E7B7883846FFF7E7
:10942000F3FE04000DD02B46424606F1080104F17C
:109430000A00FFF7F2FE607221463846BDE8F443A9
:109440006DE7BDE8F1830000F82A0020082C002019
:109450006B92020072B6FDF76AF9FDF735F8002845
:10946000FBD11048104C1149041BE408240444F0BB
:109470000100FDF706F80E480168CA0700D500BED6
:109480000C4944F00200FCF7FCFFBFF34F8F0A4980
:109490000A480A6802F4E06202430A60BFF34F8F91
:1094A00000BFFDE77CAE02005CAE020074B20200B9
:1094B000F0ED00E080B202000CED00E00400FA05DF
:1094C000D2B2203A22BF00FA02F100207047524285
:1094D000D041D2F1200291404140D04090404140E3
:1094E0007047FEE701460878497840EA0120704756
:1094F00080B5FFF7F7FFFFE700F0010002BD0000B5
:10950000401E002204280A700FD8DFE800F003058F
:1095100007090C00112007E0212202E0312003E0BE
:1095200012220A707047222008707047F8B50E4664
:1095300090B00546B0781746002806BF01218DF887
:109540000E108DF80E003088ADF80C00032101A834
:10955000FFF756FE707C01A9FFF7D2FFB07C0DF13A
:109560000501FFF7CDFFF07B002814BF0821002183
:109570009DF8060000F0F70001438DF80610307CDE
:1095800000B1102001F0EF0101438DF80610307B8F
:1095900000B1012001F0FE0101438DF80610307D7D
:1095A000002814BF0420022001F0F90101438DF8C6
:1095B000061009A81C21FFF723FE707B10F0300F66
:1095C00015D0032102A8FFF71BFEF07C0DF1090165
:1095D000FFF796FF9DF80A1001F0F90141F0020132
:1095E0008DF80A10112002A98DF808000E91707BE9
:1095F0008DF8240004A8B17B8DF825101421FFF705
:10960000FFFD03A901AA04910592B088ADF81C00E2
:10961000B06818B1F288ADF818200890B469002C31
:109620002FD003216846FFF7EBFD2088ADF82C0012
:109630006088ADF82E0061680A91CDF834D0694693
:10964000207BFFF75DFFB069407B0DF10101FFF763
:1096500057FFB169887A002814BF0821002100F063
:1096600020F8B269D07A00F02CF8B069007A00F0E6
:1096700020F8B269907B002814BF0420022000F07B
:109680000AF8F06900B10C903B4604AA09A92846E3
:10969000AADF11B0F0BD01F0F90101438DF802100D
:1096A00070479DF8020000F0F70001438DF80210AA
:1096B000704700B1012001F0FE0101438DF8021056
:1096C000704700B1102001F0EF0101438DF8021046
:1096D0007047FEE72E4901200870704738B588B002
:1096E000044668462FA12022FDF7E0F94FF0FF3134
:1096F00001910291039106254FF0EB7100950691BF
:10970000220014BF234A0022214D6946281D00F083
:10971000EDFA08B1FEF766FD6C7009B030BD0120AE
:10972000DCE770B51A4C1C4D00202070D2B22679AF
:10973000AB5D23B104F10800FEF74FF803E004F13C
:109740001000FDF70DFB08B1FEF74CFD617811B17B
:1097500020780028FCD070BD80B5104A00924023CC
:109760000F4A00F0F3FA01BD704780B508490A4A74
:109770000B79D05C20B101F10800FDF7ADFF03E0EB
:1097800001F11000FDF784FABDE802400020A5E7D2
:1097900018240020D59602007C2C0020239702007C
:1097A000382B0020FFFFFFFFFFFFFFFFFFFFFFFF42
:1097B000FFFFFFFF00000000000000000000D601D6
:1097C0000601000000000000000000000000000092
:1097D00028B10FF2BC21800141F001010847704718
:1097E00000EB8100C0F840257047C0F808137047AF
:1097F00081B00022425040580090009901B070475B
:10980000C0F844137047C0F84813704770B54379E7
:10981000924C934E04EB8305231DAA604579914A2F
:1098200013F83530B21AD208120433B18E4942F01F
:109830000200FCF726FE082070BD05680B88C5F8FD
:109840000835897890F904304901002B1D4602D46F
:10985000864B595505E0864E05F00F05354405F851
:10986000041C90F90430190007D4012503F01F01EE
:10987000804E8D405B0946F82350211D4379012518
:1098800001F8335090F8051044F8310042F003001D
:109890007AA1FCF7F6FD002070BD000000680121F0
:1098A000016070470068012140F8041F70472DE9EE
:1098B000F04106460F4630684FF4803500F542719E
:1098C0009046BD400D60BA000D6402F5A0721C46C2
:1098D00011B2FFF78DFF306828F07F423946FFF75D
:1098E0007FFF306800F54170056404B10560BDE894
:1098F000F08170B504460D4620681646FFF780FFDC
:1099000016B12068C0F8045370BD38B504460D4642
:109910002068FFF778FF20682946BDE8344064E7F7
:1099200010B500680A4684580CB1FFF761FF2000AB
:1099300018BF0120C0B210BD2DE9F84F88464FF482
:10994000803101FA08FA0546994622F07F445146D3
:10995000FFF7DBFF2868D0F8047500EB88013A4672
:10996000D1F840B541464FEA8806FFF739FF06F5C2
:10997000A076286831B2FFF73BFFABEB070727F073
:109980007F47012F06D11020FFF722FF286831B250
:10999000FFF72EFF2868D0F80475C0F844A3E11B38
:1099A000661C21F07F41012913D132464146FFF761
:1099B00017FF1020FFF70CFF2868D0F80405874236
:1099C00024D1012251462846FFF793FF0020BDE82D
:1099D000F28F22464146FFF703FF2B68D3F8047548
:1099E000641EE41B6FF07F4124F07F44A1EB09006B
:1099F000A0420BD3002CE4D1324641461846FFF773
:109A0000EFFE2868D0F804058742DAD00D20DEE7A3
:109A10000A4602216DE74FF4827181E74FF48032EC
:109A200002FA01F171E7890001F5A07109B277E747
:109A30000068D0F80405704790F90410080007D4B6
:109A4000012201F01F000C4B8240490943F82120FC
:109A5000704702490868896808470000702C002098
:109A600064AE02005CAE020058B0020000E400E008
:109A700018ED00E000E100E000E200E05254433A5B
:109A800020696E697469616C697A65642E000000F2
:109A90000338FDD87047000070B504460D4666686F
:109AA00000E03668306820B1A26829469047002857
:109AB000F7D130682860356070BD426811680800D1
:109AC0001CBF09681160704702460020536800E01F
:109AD00013461A6822B18A42FAD108681860012038
:109AE0007047FEE750B509B90E2050BD144694FBEF
:109AF000F3F603FB16440CB1092050BD01608460ED
:109B0000002141608281C381002050BD3CB550E8F6
:109B1000015FAAB2C3891A4483899A4228BFD21A24
:109B200003899A4202BFBFF32F8F002407E0C2EAE5
:109B3000050240E80123002BE9D14FF0010400F0B9
:109B40003AF81AB100680988084436BD002036BDCD
:109B50000A8849888A4209D150E8011FC1EA0141B7
:109B600040E80112002AF7D1012070470020704719
:109B70003CB550E8025F1FFAA5F2C3889A4202BFC3
:109B8000BFF32F8F00240DE0C3891A4483899A42C2
:109B900028BFD21AC5EA024240E80223002BE8D1CE
:109BA0004FF0010400F007F81AB100684988084432
:109BB00036BD002036BD01958DF80040019B0B603D
:109BC0009DF80020704700000A8849888A4209D120
:109BD00050E8021FC1EA214140E80212002AF7D1F1
:109BE000012070470020704705E00A684B689A42E0
:109BF00009D1083141600268416853689942F4D143
:109C0000002181607047826070470160096841608F
:109C1000EAE7816851B103689A6851184268816027
:109C20005368994202D102F10801F0E77047FEE75C
:109C300080B500F003F800B90FA002BD10B50D49C2
:109C400001F5947200E01A46914210D2531ADB10CB
:109C500003EBD3735B1001EBC3031C68A042F2D388
:109C6000844238BF03F10801EED3586810BD0020CC
:109C700010BD000064A90200556E6B6E6F776E20F8
:109C80006572726F7220636F6465000000B500BF7B
:109C9000130096469446103928BFA0E80C50FAD815
:109CA0005FEA417C28BF0CC048BF40F8042BC907BD
:109CB00028BF20F8022B48BF00F8012B00BDFEE7AB
:109CC000F8B500E0F8B502788DF8002043680193FC
:109CD00082688DF80820C068194A039002EB81025F
:109CE000684691685268904705B000BDF8B50446D3
:109CF00088B02678124F07EB8600154645600A6942
:109D000082602022487FB8556846FCF7CFFE049653
:109D10002678B85D40B1002D14BF0A4A002269467A
:109D2000201DFDF73DFC08E0002D14BF064A00226F
:109D3000694604F10C00FCF719FF09B0F0BD000002
:109D40007C2C0020C19C0200C59C0200F0B595B09F
:109D50000D461A9C16461F462846FCF765FD09A8C5
:109D60001821FFF74DFA09960A970E94002308224E
:109D700001A92846FCF7B2FD0398BDF80A1004902B
:109D80000826BDF80800ADF8140000220198ADF8CF
:109D9000161000F0030001288DF8192017D1019842
:109DA000019CC0F3C2008DF8180008230198C0F38D
:109DB0008316B2000FA92846FCF790FD09A8009071
:109DC00004AB32460FA9A00A00F06EF81FE001981C
:109DD00000F0030002281AD10198019CC0F3C200D0
:109DE000A40D8DF818000827082C98BF2746334685
:109DF0003A4607A92846FCF771FD09AB04AA394683
:109E000007A800F099F8BE19E41B002CEBD12846F6
:109E1000FCF70EFD15B0F0BD7CB504460D46E38899
:109E20004BB100BF0FF2D8160FF2DC1278A10096EA
:109E3000284600F00FF9217A05291CD0607A6F4E70
:109E400048B1A088FCF718FA06EB800065A14269CA
:109E5000284600F0FFF8A0880021FCF7FFF9034630
:109E6000207A56F8202028460DF1080DBDE87040F4
:109E70006DA100F0EFB873BD38B50C46017A052925
:109E800059A507D0407A30B15DA256A1204600F016
:109E9000E1F800E01AB12946204600F0DBF8204640
:109EA000BDE8324000F0CAB82DE9F84384B0174647
:109EB0000C9D2E7B002281460C4698462A7329462B
:109EC0004046FFF7A9FF062F2CD8DFE807F004096A
:109ED0000F1A21161D004946284600F0BBF821E064
:109EE00022684946284600F0B5F81BE063682268FE
:109EF0004946284600F0AEF814E020690290E16877
:109F00000191A068009007E06069039021690291C7
:109F1000E0680190A168009163682268494628467C
:109F200000F098F8002229464046FFF7A5FF2E735F
:109F300005B0BDE8F08300002DE9F84F8A46BAF17C
:109F4000080F814698464AD80092002298F80CB033
:109F500038A588F80C2041460098FFF75DFF0027E0
:109F600022A4574506D219F807202946404600F09A
:109F700071F803E02146404600F06CF87F1C082F82
:109F8000EFD31BA1404600F065F8002619A71AA4DC
:109F9000564516D219F806507F2D0BDAA5F1200090
:109FA0005F2808D3284600F069F820B9284600F059
:109FB0006FF800B92E252A462146404600F04AF89F
:109FC00003E03946404600F045F8761C082EDFD302
:109FD000009801224146FFF74FFF88F80CB0BDE81A
:109FE000F18F0000257300000D0A000020202000E2
:109FF0007C000000200000002563000038240020C1
:10A000001B5B306D000000001B5B313B33316D008A
:10A0100025734C6F67732064726F707065642028BD
:10A0200025642925730D0A003C25733E2025733ACB
:10A0300020000000202530327800000010B50446D2
:10A04000A2682AB121682069636998470020A0604E
:10A0500010BD0000002900D170470CB438B500BF16
:10A0600005A31C68009404AD00956A4600F081F8D1
:10A0700031BC5DF80CFB00000000000010B5044688
:10A0800000F0BFF9014620460969BDE810400847C5
:10A0900010B5044600F0B5F901462046C969BDE88F
:10A0A0001040084738B50D4604460A2D04BF0D215F
:10A0B000FFF7F8FFA068411CA16022681554606892
:10A0C000814204D32046BDE83240FFF7B7BF31BD1F
:10A0D0002DE9F84F8B460124154602E0B1FBF5F15E
:10A0E000641CA942FAD20B9F9A46D146A24538BFBA
:10A0F000A14680460A9CF8070CD45CB1B8070CD482
:10A100002026A14506D231464046FFF7CBFF641E0C
:10A11000002CF6D12E46012507E0BAF1000FEFD151
:10A120003026EEE7AAF1010A7543BAF1010FF9D81A
:10A13000BBFBF5F0B04228BF7543F9D29DA1BBFB34
:10A14000F5F005FB10BB095C4046FFF7ABFFB5FB24
:10A15000F6F5002DF2D1F80709D544B1A14506D294
:10A1600020214046FFF79EFF641E002CF6D1BDE87B
:10A17000F18F2DE9FE4F0D008246174600F00C814D
:10A1800015F8010B002800F0FF80252840F0F5802D
:10A19000002602E046F001066D1C29782B2907D025
:10A1A0002D29F7D0302908BF46F00206F4D002E08E
:10A1B00046F00406F0E700240A2007E02978A1F120
:10A1C00030020A2A0AD26D1C00FB04242A29F5D188
:10A1D000396851F8042B396014196D1C29782E291F
:10A1E0004FF000080BD16D1C04E0303900FB081162
:10A1F0006D1C88462978A1F130020A2AF5D3297806
:10A2000001E015F8011F6C2918BF6829F9D025292C
:10A2100006F0010016D0582964D063290DD06429B6
:10A2200018BF69290FD0702900F08E8073295DD086
:10A23000752953D0782955D09DE0386850F8041B13
:10A240003860C9B295E0396851F8049B39605FEA1B
:10A25000090148BF494201220A2302E091FBF3F1C0
:10A26000521C0A29FADAC346904538BF93462CB1EE
:10A27000B9F1000F01D4710700D5641EB10702D5F2
:10A28000B8F1000F08D038B934B1A34504D200F0BA
:10A290008DF8641E002CF8D1B9F1000F03D5C9F177
:10A2A00000092D2102E0700702D52B2100F07FF874
:10A2B00006F00300022808BFB8F1000F08D13CB136
:10A2C000A34505D2302100F072F8641E002CF7D1AE
:10A2D0000196009443460A22494646E000F05EF8A3
:10A2E0000A2242E000F05AF810223EE0396851F8A4
:10A2F000048B3960002140B9B8F1000F03D040460B
:10A3000000F084F801460E4613E0894603E000F0B1
:10A310004EF809F1010918F8011B0800F7D1A14511
:10A3200029D244B300F042F8641EF8E700F03EF88A
:10A33000641EA64201D2002CF8D118F8011B0800B7
:10A3400019D000F034F8F8E7386850F8044B38605A
:10A35000302100F02CF8782100F029F80821009134
:10A36000002001900823102221465046FFF7B0FE3E
:10A3700001E000F01CF86D1C02E0014600F017F847
:10A38000287800287FF4FCAE9AF80C0020B15046E3
:10A39000BDE8FE4FFFF752BEBDE8F78F386850F8B2
:10A3A000041B3860019600944346704720215046B4
:10A3B00078E60000303132333435363738394142AF
:10A3C00043444546613807E005E0A0F161011A29E0
:10A3D00001D20120704741381A288041C00F7047D0
:10A3E000A0F121010F290AD3A0F13A02062A06D9C9
:10A3F000A0F15B01062902D37B380428EDE7012098
:10A4000070470148704700007424002000F10103E8
:10A4100010F8011B11B110F8011BFBE7C01A7047BF
:10A42000F0B57848784A016811F1010F08BF11783A
:10A43000062905D17549764C0B68C3F304212160C8
:10A440001178062902BF9168C1F30311032902D1D3
:10A45000704B7149196000F0FBF808BF1478062CA6
:10A460006E496F4B03D11C68C4F342344C601478BE
:10A47000062C02BF9468C4F30314032C04D1694C66
:10A48000256825F08075256000F0E2F808BF147893
:10A49000062C06D1644C0025256000266660002449
:10A4A0000C601578062D01BF9468C4F30314032CC7
:10A4B0008C661578062D02BF9468C4F30314032C30
:10A4C00008D15A4C052525600126A6670027A760FC
:10A4D0003F25656000F0BCF803BF14789568C5F3AC
:10A4E00003154568062C26D1ED1E012D23D9504DAC
:10A4F000504C2E6826606F686760AE68A660EF6893
:10A50000E7602E6926616F696761AE692662EF694F
:10A5100067622E6AA6626F6AE762AE6A2663EF6AB6
:10A5200067632E6B26646F6B6764AE6BA664EF6B1C
:10A53000E7642D6C256500F08BF808BF1478062CB5
:10A5400004D15B693C4C03F04F032360036813F1B3
:10A55000010F08BF1378062B06D1384A1368DC07B1
:10A5600044BF6FF0010313600268062A08D14268F5
:10A57000D21E022A04D9324A146844F4806414605A
:10A58000304AD36F43F47003D367BFF34F8FBFF3E9
:10A590006F8F04682C4B062C05D14068C01E032821
:10A5A00084BF9D680D62186800285CBF5868002849
:10A5B0001CD5114901240C600E4C00F04DF81525F6
:10A5C0001D6000F049F85D6000F046F800230B6064
:10A5D00000F042F8BFF34F8F11681C4801F4E061AE
:10A5E00001431160BFF34F8F00BFFDE7034A0449E9
:10A5F0001160F0BD00E4014004E50140702400203A
:10A600000090D00330010010E00F00F02403001090
:10A610004035014074C007400DF0ADBA3805004028
:10A6200044020010FCED00E00C0100401056004018
:10A630000404001020C50040E40E00400004004067
:10A640003C1700400CED00E0001200100400FA0579
:10A65000046814F1010F704720680028FCD070478F
:10A6600073645F626C655F6366675F7365742829F6
:10A670002072657475726E65642025732077686535
:10A680006E20617474656D7074696E6720746F20DC
:10A6900073657420424C455F434F4E4E5F434647BF
:10A6A0005F4741502E00000073645F626C655F631A
:10A6B00066675F73657428292072657475726E65AC
:10A6C00064202573207768656E20617474656D70F1
:10A6D00074696E6720746F2073657420424C455F07
:10A6E0004741505F4346475F524F4C455F434F558C
:10A6F0004E542E0073645F626C655F6366675F73C0
:10A70000657428292072657475726E6564202573DE
:10A71000207768656E20617474656D7074696E670A
:10A7200020746F2073657420424C455F434F4D4D3C
:10A730004F4E5F4346475F56535F555549442E0081
:10A7400073645F626C655F6366675F736574282915
:10A750002072657475726E65642025732077686554
:10A760006E20617474656D7074696E6720746F20FB
:10A7700073657420424C455F47415454535F4346D0
:10A78000475F415454525F5441425F53495A452EEA
:10A790000000000073645F626C655F6366675F73EF
:10A7A000657428292072657475726E65642025733E
:10A7B000207768656E20617474656D7074696E676A
:10A7C00020746F2073657420424C455F4741545498
:10A7D000535F4346475F534552564943455F43489D
:10A7E000414E4745442E000033B58BB0002104464E
:10A7F00000910C9880B1002529460CA800F0A9F81A
:10A8000038B10099684600EB410295800098401CE1
:10A8100000906D1C142DEFD3204669462C22FCF7C6
:10A8200045F90DB030BD002A18BF00F07DB800F02A
:10A8300085B82DE9F84306468CB03088B488394D88
:10A84000102806D011283CD019285CD01A283ED0F8
:10A8500064E0AA68D243009268466968FCF774F81D
:10A86000009901A8FFF7C0FF4FF000080EE002A812
:10A87000002730F81890281D494600EB870000F0AB
:10A880005DF87F1C1E2FF6D308F101080198804562
:10A89000EDD3142C03DB0420FDF7A4FC3EE021469D
:10A8A00005F1080000F040F82146281D00F03CF8B2
:10A8B000F07B022832D1214605F10C0000F034F87B
:10A8C0002CE0214605F1080000F038F826E0367A41
:10A8D0003609042EACBF01220022214605F11800E2
:10A8E000FFF7A1FF022ECCBF01220022214605F175
:10A8F0001400FFF798FF022EACBF01220022214670
:10A9000005F1100008E0307A40B9727AD20802F0FE
:10A910000102214605F11800FFF785FF0DB0BDE8E3
:10A92000F08300001C2A00200B46012103F01F02C7
:10A930005B09914000EB8300FBF7EEBF0B46012162
:10A9400003F01F0291405B09C94300EB8300FBF752
:10A95000FBBF4A0950F8220001F01F01C84000F077
:10A960000100704700000000F0B502000100000087
:10A9700098B10200020000007CB002000300000059
:10A980003CB402000400000050B4020005000000C6
:10A9900064B402000600000050B30200070000008B
:10A9A00068B302000800000080B302000900000044
:10A9B00090B202000A00000098B302000B000000F1
:10A9C000B0B302000C00000078B402000D000000DB
:10A9D0008CB402000E0000002CB502000F00000035
:10A9E000A0B4020010000000C8B302001100000073
:10A9F0003CB5020012000000E0B3020013000000AA
:10AA0000B4B4020080000000A0B002008100000089
:10AA1000ACB2020082000000C8B202008300000055
:10AA2000B8B1020084000000C4B00200850000003C
:10AA3000E0AF020086000000F8B3020090000000C2
:10AA4000D8B1020091000000F8B1020092000000AD
:10AA500010B402000082000018B20200018200005F
:10AA6000E4B202000282000000B302000084000091
:10AA7000E8B0020001840000B4AF020002840000CC
:10AA800008B00200038400000CB1020038B5424C4B
:10AA9000207808B1852510E0A06000216160206168
:10AAA000E1600FF2850000F088F80546FEF730F906
:10AAB00008B900F08FF801212170384A106808B1F8
:10AAC0000121A170284632BD1CB500F015F8324CAA
:10AAD000E068401EE060E068002802BF2F49086877
:10AAE000002803D100F083F80020A070FFE79DF854
:10AAF0000000FBF770FF13BD00218DF800106846C1
:10AB0000FBF74EBF38B50400234814BF00F1100511
:10AB100000F1080504E00868286020464968884775
:10AB200029680029F7D131BD02001B4903D1012357
:10AB30004B70002002E0012801D18870E2E77047E5
:10AB400018B9154A01215170DCE770471CB520B1D6
:10AB500001280AD0032819D013BD1149012008602B
:10AB6000BFF34F8FBFF36F8F13BD00228DF800200E
:10AB70006846FBF715FF084C207808B9FFF786FFF9
:10AB8000E068401CE0600121A170B0E700F022F80D
:10AB9000FFF79AFF13BD00003C2C00200004014089
:10ABA00080E100E04FF08041034681B00022CA50AE
:10ABB00008580090009901B07047254B197902465A
:10ABC000002009B18520704701211A601971587160
:10ABD000704700001F480168C90704D41E4BC022FB
:10ABE0001A700121016001201C4A1060704780B575
:10ABF0001B490220086000F008F81A481A4A01218F
:10AC000001601068C003FCD401BD4FF48270C9E735
:10AC10004FF48070C6E770B5144E0D4C3068104D7F
:10AC200040B1FFF7F5FF01212960607910B961712A
:10AC300022689047706840B1FFF7E7FF0220286064
:10AC400001202168BDE87040084770BD0000000089
:10AC5000982C002000E100E000E400E0180500402E
:10AC6000080300400C0000401804004000010040B0
:10AC700073645F626C655F6761705F646174615F7C
:10AC80006C656E6774685F757064617465282920EF
:10AC9000287265717565737429206F6E20636F6EFD
:10ACA0006E656374696F6E203078257820726574E4
:10ACB00075726E65642025732E000000546865204F
:10ACC0007265717565737465642054582F525820ED
:10ACD0007061636B6574206C656E6774682069735E
:10ACE00020746F6F206C6F6E672062792025752F3E
:10ACF0002575206F63746574732E00005468652099
:10AD000072657175657374656420636F6D62696ED9
:10AD10006174696F6E206F6620545820616E6420E4
:10AD20005258207061636B6574206C656E6774683F
:10AD30007320697320746F6F206C6F6E6720627967
:10AD4000202575206D6963726F7365636F6E647320
:10AD50002E000000496E73756666696369656E74DE
:10AD60002052414D20616C6C6F6361746564206694
:10AD70006F722074686520536F66744465766963EA
:10AD8000652E00004368616E676520746865205217
:10AD9000414D207374617274206C6F636174696FCC
:10ADA0006E2066726F6D203078257820746F2030A9
:10ADB0007825782E000000004D6178696D756D2052
:10ADC00052414D2073697A6520666F722061707000
:10ADD0006C69636174696F6E2069732030782578BF
:10ADE0002E000000F0B402461068956813185068F1
:10ADF00003EB5004C0071CD54D441AE013F8017B47
:10AE000005F8017B491EF9D198B113F8011BC6F36F
:10AE10008106032E08BF13F8016B01EB062149429E
:10AE2000801C294405D011F8016B05F8016B401E08
:10AE3000F9D1A3420ED013F8016B16F0030104BF41
:10AE400013F8011BC91C30090F28DBD113F8010BC3
:10AE50000F30D7E7F0BC02F10C0070479CB5020040
:10AE600000000000A8B5020000000000DCB40200F1
:10AE700000000303FCB5020000000000A4B60200BD
:10AE800000000303C0B50200000000005CB6020031
:10AE900000000303CCB5020000000303D8B5020094
:10AEA00000000303E4B502000000000064B60200E5
:10AEB000000000006CB6020000000000A8B602000E
:10AEC0000000000074B60200000000007CB6020022
:10AED0000000000073645F626C655F676174746397
:10AEE0005F65786368616E67655F6D74755F7265D5
:10AEF000717565737428292072657475726E656446
:10AF00002025732E0000000073645F626C655F672C
:10AF1000617474735F65786368616E67655F6D7493
:10AF2000755F7265706C7928292072657475726E10
:10AF300065642025732E00001FB500BF0CA4684671
:10AF40004BDF20B9214601A8FEF75FFE0BE0052884
:10AF500018BFFDF747F91FBD516800981268904768
:10AF600001A8FEF756FE039A002AF5D1E7E7000094
:10AF70001CB502002CB502000800000030B400250A
:10AF800012E050F8042BD30744BF4A44521E091F55
:10AF9000042942F8045BFAD213468C0744BF15809B
:10AFA0009B1CC90748BF1D7050F8041B0029E8D13D
:10AFB00030BC70474E52465F4552524F525F424C32
:10AFC000455F495053505F4348414E4E454C5F41A9
:10AFD0004C52454144595F45584953545300000071
:10AFE0004E52465F4552524F525F4D4F44554C456D
:10AFF0005F414C52454144595F494E495449414C87
:10B00000495A4544000000004E52465F4552524F97
:10B01000525F424C455F495053505F4C494E4B5F25
:10B02000444953434F4E4E454354454400000000AD
:10B0300010B5074979441831064C7C44163404E0B5
:10B040000A68081D114488470146A142F8D110BD85
:10B05000040100002001000052544320696E737403
:10B06000616E636520616C726561647920696E69E7
:10B070007469616C697A65642E0000004E52465F07
:10B080004552524F525F534F4654444556494345EB
:10B090005F4E4F545F454E41424C45440000000016
:10B0A0004E52465F4552524F525F4D4F44554C45AC
:10B0B0005F4E4F545F494E495449414C495A4544AB
:10B0C000000000004E52465F4552524F525F4D55B0
:10B0D0005445585F434F4E445F494E49545F464183
:10B0E000494C4544000000004E52465F4552524FC5
:10B0F000525F424C455F495053505F52585F504B2E
:10B10000545F5452554E4341544544004E52465F9D
:10B110004552524F525F424C455F495053505F5029
:10B120004545525F52454A4543544544000000009E
:10B130004EF68851CEF20001086840F470000860B5
:10B14000BFF34F8FBFF36F8F4FF00170E1EE100A26
:10B150007047000029FEFFFFF4070000BC24002018
:10B160000000000081FCFFFF8205000008010000D4
:10B17000F0220020FEE7000084B602008CB6020038
:10B180006CB502007CB502007CB502008CB50200F3
:10B190008CB6020094B602004E52465F4552524FA2
:10B1A000525F5356435F48414E444C45525F4D49B0
:10B1B0005353494E470000004E52465F4552524F8E
:10B1C000525F4D555445585F554E4C4F434B5F466B
:10B1D00041494C45440000004E52465F4552524F93
:10B1E000525F4150495F4E4F545F494D504C454D61
:10B1F000454E5445440000004E52465F4552524F62
:10B20000525F464541545552455F4E4F545F454E3F
:10B2100041424C45440000004E52465F4552524F59
:10B22000525F4452565F5457495F4552525F4F56E2
:10B23000455252554E0000000120C046002801D062
:10B24000FFF7F6FEAFF300800020AFF30080FCF7BD
:10B2500081FE00F000F800F001B8FEE7074638462E
:10B2600000F002F8FBE7FEE7202109032631182051
:10B27000ABBEF9E7466174616C206572726F720053
:10B2800053797374656D20726573657400000000F6
:10B290004E52465F4552524F525F494E56414C49BD
:10B2A000445F4C454E475448000000004E52465FF4
:10B2B0004552524F525F4D555445585F494E49547F
:10B2C0005F4641494C4544004E52465F4552524FFD
:10B2D000525F4D555445585F4C4F434B5F46414973
:10B2E0004C4544004E52465F4552524F525F4452C5
:10B2F000565F5457495F4552525F414E41434B00A0
:10B300004E52465F4552524F525F4452565F545719
:10B31000495F4552525F444E41434B000548014648
:10B3200003B4684680F30988AFF30080FFF700FF9D
:10B33000FFF782FFA5EDF5FE000000000000000011
:10B3400000000000000000000000000000000000FD
:10B350004E52465F4552524F525F4E4F545F5355C7
:10B3600050504F52544544004E52465F4552524F42
:10B37000525F494E56414C49445F504152414D0045
:10B380004E52465F4552524F525F494E56414C49CC
:10B39000445F5354415445004E52465F4552524F0C
:10B3A000525F494E56414C49445F464C4147530019
:10B3B0004E52465F4552524F525F494E56414C499C
:10B3C000445F4441544100004E52465F4552524F43
:10B3D000525F494E56414C49445F4144445200003B
:10B3E0004E52465F4552524F525F434F4E4E5F435F
:10B3F0004F554E54000000004E52465F4552524F8A
:10B40000525F53544F524147455F46554C4C0000E4
:10B410004E52465F4552524F525F494F5F50454E24
:10B4200044494E4700000000756172745F6C6F679D
:10B430005F6261636B656E64000000004E52465FA0
:10B440004552524F525F494E5445524E414C0000B6
:10B450004E52465F4552524F525F4E4F5F4D454DE3
:10B46000000000004E52465F4552524F525F4E4F11
:10B47000545F464F554E44004E52465F4552524F20
:10B48000525F444154415F53495A45004E52465F12
:10B490004552524F525F54494D454F55540000009C
:10B4A0004E52465F4552524F525F464F52424944B8
:10B4B00044454E004E52465F4552524F525F5245F0
:10B4C000534F555243455300902C0020882C0020A8
:10B4D000902C0020DC280020180000006E72665FAF
:10B4E000626C655F6761747400000000000000001A
:10B4F0000000000000000000000000009CB60200F8
:10B50000A4B6020000000000000000008CB502009C
:10B510009CB50200000000000000000094B602008C
:10B520009CB6020000000000000000004E52465F82
:10B530004552524F525F4E554C4C00004E52465FA2
:10B540004552524F525F42555359000001488047BF
:10B550000148004721A402001DB30200B4B5020057
:10B560000000000028B40200302400205B93020099
:10B57000000000002D900200F023002059860200F8
:10B58000C42300202983020004240020E98E020045
:10B590000000000039AF0200000000006170705F21
:10B5A000627574746F6E00006170705F74696D65B0
:10B5B00072000000599702006B9702006997020021
:10B5C0007077725F6D676D74000000006E72665F69
:10B5D0007364685F626C65006E72665F7364685F57
:10B5E000736F6300736F72746C6973740000000092
:10B5F0004E52465F5355434345535300636C6F634C
:10B600006B0000006572726F720000007761726EED
:10B61000696E6700696E666F0000000064656275A0
:10B62000670000001B5B313B33306D001B5B313B1F
:10B6300033326D001B5B313B33336D001B5B313BA1
:10B6400033346D001B5B313B33356D001B5B313B8D
:10B6500033366D001B5B313B33376D006E72665FB6
:10B6600073646800434C4F434B0000004750494F00
:10B6700054450000554152540000000055415254B9
:10B680004500000033A8020000000000597E0200BF
:10B690000000000041AB0200000000004DAB0200C2
:10B6A000000000006170700050525300FEE7FEE79A
:10B6B000FEE7FEE7FEE7FEE7FEE7FEE7FEE7FEE762
:10B6C000FEE7FEE7FEE7FEE7FEE7FEE7FEE7FEE752
:10B6D000FEE7FEE7FEE7FEE7FEE7FEE7FEE7FEE742
:10B6E000FEE7FEE7FEE7FEE7FEE7F21E000152FF7F
:10B6F00001F11C38F0056F10014011000400011227
:10B70000FFBE1003C82B00201F8A52E808F10F016A
:10B7100080050D000300117F022A30012000400D3A
:10B7200061081101650D100304B602000C04121427
:10B7300004121C04100300A00200240812080812BE
:10B740002C08123404123C04124404124C042254F7
:10B7500024900690D003E2810200018C43CBA370B9
:0EB7600012C50852E10C93C9A384D101613CCB
:040000050002B31D25
:00000001FF
